:020000040800F2
:1000000088270020690200086F3700087532000851
:100010006D370008D9060008855C00080000000064
:10002000000000000000000000000000453C000847
:100030002508000800000000EB3800088D3D00088E
:10004000830200088302000883020008830200087C
:10005000830200088302000883020008830200086C
:10006000830200088302000883020008830200085C
:10007000830200088302000883020008830200084C
:100080008302000883020008A50500088302000817
:10009000830200088302000883020008830200082C
:1000A00083020008353E000883020008830200082E
:1000B000830200088302000883020008830200080C
:1000C000830200088302000883020008A93900089F
:1000D00083020008830200088302000883020008EC
:1000E00083020008830200088302000883020008DC
:1000F00083020008830200088302000883020008CC
:1001000083020008830200088302000883020008BB
:1001100083020008830200088302000883020008AB
:100120005D070008830200086907000875070008DA
:1001300083020008000000000000000083020008A5
:100140008302000883020008830200087137000858
:10015000830200088302000883020008830200086B
:10016000830200088302000883020008830200085B
:100170008302000883020008000000000000000065
:10018000830200088302000800F002F800F05CF827
:100190000AA090E8000C82448344AAF10107DA45E2
:1001A00001D100F051F8AFF2090EBAE80F0013F0D8
:1001B000010F18BFFB1A43F0010318479C6A0000A7
:1001C000BC6A00000A444FF0000C10F8013B13F029
:1001D000070408BF10F8014B1D1108BF10F8015BA0
:1001E000641E05D010F8016B641E01F8016BF9D193
:1001F00013F0080F1EBF10F8014BAD1C0C1B09D1EA
:100200006D1E58BF01F801CBFAD505E014F8016B5B
:1002100001F8016B6D1EF9D59142D6D370470000ED
:100220000023002400250026103A28BF78C1FBD8FF
:10023000520728BF30C148BF0B6070471FB506F09A
:100240007BF81FBD10B510BD00F0E2F81146FFF7B6
:10025000F5FF05F0ADFE00F000F903B4FFF7F2FF83
:1002600003BC00F003F90000094880470948004733
:10027000FEE7FEE7FEE7FEE7FEE7FEE7FEE7FEE756
:10028000FEE7FEE704480549054A064B70470000B3
:10029000253E0008890100088821002088270020C9
:1002A000882300208823002053EA020C00F0698094
:1002B0002DE9F04B4FF00006002B1FBFB3FA83F57A
:1002C00003FA05F424FA05F65E4012BF1643B2FAAB
:1002D00082F502FA05F4C5F120051EBF22FA05FCDD
:1002E00044EA0C04203556EA044C4FEA144418BF83
:1002F000641C4FF000084FF00009904271EB030CB2
:1003000039D3002919BFB1FA81F701FA07F6B0FA1B
:1003100080F700FA07F6C7F120071EBF20FA07FC96
:1003200046EA0C062037B6FBF4FCA7EB0507103FA6
:1003300007F01F0BCBF120060CFA0BFB2CFA06F68C
:1003400044BFB3460026202FA4BF5E464FF0000BEB
:100350005BEA060C08BF4FF0010B19EB0B09ABFB76
:10036000027C48EB0608C01B06FB02CC0BFB03CC4F
:1003700071EB0C01C1E70B46024641464846BDE819
:10038000F08B13B54FF000004FF00001AFF3008089
:10039000BDE81C4070474FF0000200B5134694467C
:1003A0009646203922BFA0E80C50A0E80C50B1F1CD
:1003B0002001BFF4F7AF090728BFA0E80C5048BFE1
:1003C0000CC05DF804EB890028BF40F8042B08BF7F
:1003D000704748BF20F8022B11F0804F18BF00F87B
:1003E000012B704770477047704710B500F008F850
:1003F000006810BD10B5044600F002F8046010BD9E
:10040000004870472821002000487047282100201C
:100410007546FFF7F9FFAE4605006946534620F0E2
:100420000700854618B020B5FFF72CFFBDE8204037
:100430004FF000064FF000074FF000084FF0000BA0
:1004400021F00701AC46ACE8C009ACE8C009ACE853
:10045000C009ACE8C0098D46704710B50446AFF33B
:1004600000802046BDE81040FFF7F7BE0149182084
:10047000ABBEFEE726000200704700009FED221A87
:100480009FED222A20EE010AB5EE001A30EE010A95
:10049000BDEEC01A11EE100AB5EE400AF1EE10FAE8
:1004A000B8BF013801EE100AB8EEC11A30EE410AA9
:1004B00020EE020ABDEEC01A9FED152A11EE100AB9
:1004C000002130EE021AB1EB502F46F254411CBF0E
:1004D0000020B0EE410AC0F6000101EE100A01EB67
:1004E0008001B8EE411A30EE410A91ED001A91ED0B
:1004F000012AB7EE003A33EE403A23EE011A20EE1D
:10050000020A31EE000A704783F9223E00000044DF
:10051000000000C49FED201A9FED202A20EE010A62
:10052000BDEEC01A11EE100AB5EE400AF1EE10FA57
:10053000B8BF013801EE100AB8EEC11A30EE410A18
:1005400020EE020ABDEEC01A9FED152A11EE100A28
:10055000002130EE021AB1EB502F46F254411CBF7D
:100560000020B0EE410AC0F6000101EE100A01EBD6
:100570008001B8EE411A30EE410A91ED001A91ED7A
:10058000012AB7EE003A33EE403A23EE011A20EE8C
:10059000020A31EE000A704783F9223E000000444F
:1005A000000000C4014800F0D9BC00005001002048
:1005B000464910B54A6822F440324A604A684368A6
:1005C0001A434A6001684A6822F480724A600168EE
:1005D0004A68036942EA03224A6001684A6822F0D5
:1005E00040724A6001684A6883681A434A60016839
:1005F0008A6822F400628A6001688A68C3681A43C4
:100600008A60816A6FF07062D14201688A6822F064
:1006100070628A6001688A680CD0836A1A438A60B3
:1006200001688A6822F040528A6001688A68C36A59
:100630001A4301E022F040528A6001688A6822F081
:1006400002028A6001688A68037E42EA43028A6085
:1006500090F82010002901684A680FD042F4006227
:100660004A6001684A6822F460424A6001684A6848
:10067000174C436A04EB43331A4301E022F400624F
:100680004A600168CA6A22F47002CA620168CA6AD2
:10069000838B104C04EB03531A43CA6201688A68C7
:1006A00022F400728A6001688A6890F8303042EA69
:1006B00043228A6001688A6822F480628A60016845
:1006C0008A68406942EA8020886010BD00230140AA
:1006D00000E0FFFF0000F0FFFEE700207047002071
:1006E0007047000010B500220449054803F00EFFD2
:1006F0000449034803F0FDFE002010BDD410002083
:10070000F8030020D408002010B50446088881B200
:10071000204605F0B9FA2146034803F0EAFE0248F4
:1007200003F0C0FE002010BDF80300200020704739
:10073000094A10B5D2F8BC22D2F814220AB101201D
:1007400010BD0A460146044803F0E0FEBDE8104033
:10075000014803F055BF0000F8030020014800F0F5
:1007600035BD000098010020014800F02FBD0000B9
:10077000A8020020014800F029BD00000803002065
:1007800001681823CAB2103AB2FBF3F2054B6FF3BB
:100790000901032A9B5CC36500D9091D81650846D0
:1007A000704700004C64000810B5014600208B69BA
:1007B0008A6A4FF0C07453B1B3F5005F15D072B1BF
:1007C000012A0CD0022A0AD0032A09D104E01AB166
:1007D000012A06D0022A03D1C96AC90100D5012025
:1007E00010BDC96AA142FAD010BD002AF7D0012A73
:1007F000F2D0022AF3D0032AF3D010BD30B504683A
:10080000256825F480252560046863608368402B93
:10081000036803D099600068C26030BD9A600068C8
:10082000C16030BD704772B6FEE7000070B590F849
:100830003C20694D012A19D0012280F83C200A6829
:1008400007230468092A13D9E6680A3A02EB420230
:1008500093409E43E6600A788B680A3A02EB4202B4
:1008600093400268D4682343D36010E0022070BD37
:10087000266902EB420293409E4326610A788B6808
:1008800002EB420293400268146923431361026839
:10089000936B23F4401393630268936B0C8A4F4E5F
:1008A00006EB0454234393630A790B7CD21AD21CBF
:1008B00002EB82021F2393400268946B9C43946373
:1008C0000A790B7CD21AD21C02EB82030A8892B2FC
:1008D0009A4003689C6B22439A638A69AA42026821
:1008E000936823F470239360026893680CD08C693A
:1008F000234393600268936823F440139360026873
:100900009368CC69234301E023F4401393604A7D4C
:10091000002A0268536802D043F4806301E023F4A4
:10092000806353600A7D002A0268536802D043F452
:10093000805301E023F4805353604A68012A16D0A3
:10094000022A1FD0032A026827D0136A6FF30B0311
:1009500013620268136ACC6823431362214B046854
:100960001F4A9C4227D10C68122C20D023E0026839
:1009700053696FF30B03536102685369CC682343D7
:100980005361EBE7026893696FF30B0393610268AD
:100990009369CC6823439361E0E7D3696FF30B035A
:1009A000D3610268D369CC682343D361D6E7546826
:1009B00044F48004546004689C4208D109681029FA
:1009C00001D0112903D1516841F400015160002187
:1009D00080F83C10084670BD01000F000000F0FFD9
:1009E00000230140002001402DE9F05F0646006829
:1009F000AF4988427DD1AF4CF7EE000A012294ED59
:100A0000040A0421AC4830EE200A84ED040A00F008
:100A100059FE0121304600F069F9054602213046B1
:100A200000F064F980460321304600F05FF9217838
:100A3000A24FA34EDFF88CB2DFF88C92DFF88CA2C5
:100A400000297DD0A8B294ED010A05F0BBF984ED30
:100A5000090A1FFA88F094ED020A05F0B3F984ED53
:100A60000A0AD4ED090AF1EE600A30EEC00A84EDFC
:100A70000B0A05F0E7F9964D94ED090A284685ED35
:100A8000000A94ED0A0A85ED010A94ED0B0A85ED42
:100A9000020A05F0EBF9DFF83C828F4898ED000A76
:100AA00080ED040A95ED030A80ED000A95ED040A35
:100AB00080ED010A05F0E8FA884D95ED000A03F093
:100AC000C7F86078401CC0B26070142807D30020BB
:100AD000607003F01DF997ED080A86ED000AA07812
:100AE000401CC0B2A07028280BD395ED000A7C48AA
:100AF00000E0DAE002F030FF794802F00FFF87ED06
:100B0000000A7548774990ED020A81ED010A90EDDF
:100B1000030A084686ED010A05F0BCF9684805F0AD
:100B2000B9F998ED000A6F488BED040A5D4690ED27
:100B3000050A8BED000A96ED050A8BED010A00E02F
:100B400085E094ED040A5F4889ED140A05F00CFA7B
:100B500041F26801B2EE080ACAF810108AED030AE1
:100B600095ED020A59488AED000A95ED030A8AEDCF
:100B7000010A05F0B7FA554805F0AAFA9BED000AFC
:100B8000564989ED000A9BED010A484689ED010AA4
:100B900091ED000A002289ED020ADAED000AC9EDA2
:100BA000030ADAED010AC9ED040ADAED050AF8EEE6
:100BB000600AC9ED050ADAED060AF8EE600AC0ED32
:100BC000060ADAED070AF8EE600AC0ED070A9AF89D
:100BD000081000EE901A3E49F8EE600AC0ED080ACF
:100BE000D4ED090AC0ED090AD4ED0A0AC0ED0A0ADB
:100BF000D4ED0B0AC0ED0B0AD1ED030AC0ED0C0ACF
:100C0000D1ED040A3449C0ED0D0AD1ED020AC0ED60
:100C10000E0AD1ED030A3349C0ED0F0AD1ED000AE7
:100C20002C49C0ED100AD6ED000AC0ED110A80ED86
:100C3000120A91ED000A042180ED130A97ED010AD2
:100C40001D4889ED150ABDE8F05F00F03BBD216A43
:100C5000B1F57A7F0CDA6269491C2A446261A369A2
:100C600003EB0802A261E2691044C4E9070185E7C9
:100C700094ED050A0120F8EE400A9FED1B0A80EE74
:100C8000801A84ED011AD4ED060AF8EE600A80EEAF
:100C9000801A84ED021AD4ED070AF8EE600A80EE9D
:100CA000801A84ED031A207068E7BDE8F09F000009
:100CB000002001407C000020000C0240EC200020BD
:100CC000CC200020D81F0020342000201420002039
:100CD000EC1F00207400002000200020780000207D
:100CE00010210020AC20002000007A4408B500222A
:100CF00000920368521F1A60012911D002290CD0FA
:100D0000032906D0042901D0009808BD0068806C32
:100D100001E00068406C009008BD0068006CFAE7D4
:100D20000068C06BF7E7000018B50022009290F849
:100D30003C10012907D0012180F83C1001688B6824
:100D4000DB0702D011E0022018BD8B6843F00103DD
:100D50008B602A492A4B0968B1FBF3F101EB410191
:100D600000E0491E00910029FBD101688B68DB0778
:100D70003AD0036C42F20104A34343F4805303646A
:100D8000036CDB0500D4426480F83C206FF0040261
:100D90000A6001684A6842F080024A60194949685D
:100DA0000068C906816801F440110FD0D1B100225A
:100DB0004168154B41F38021491C98421CD1DAB19E
:100DC000D1B1816841F48001816015E041B1002119
:100DD000426842F38022521C71B1002AF1D10BE02B
:100DE0000121F5E70122E3E7016C41F01001016404
:100DF000416C41F001014164002018BD64000020F5
:100E000040420F00002301400020014078B500243B
:100E1000009490F83C20012A19D0012280F83C204F
:100E20000A6807230568092A13D9EE680A3A02EB13
:100E3000420293409E43EE600B788A680A3B03EBC4
:100E400043039A400368DD682A43DA6010E0022019
:100E500078BD2E6902EB420293409E432E610B78CF
:100E60008A6803EB43039A4003681D692A431A61A9
:100E70004A681F23072A13D205686E6B521E02EBC5
:100E8000820293409E436E630B790A885B1E92B286
:100E900003EB83039A4003685D6B2A435A6327E0A0
:100EA00005680D2A12D22E6BD21F02EB82029340EC
:100EB0009E432E630B790A88DB1F92B203EB8303F8
:100EC0009A4003681D6B2A431A6311E0EE6A0D3ADB
:100ED00002EB820293409E43EE620B790A880D3B3F
:100EE00092B203EB83039A400368DD6A2A43DA6215
:100EF000164B0568144A9D4206D10D68122D03D188
:100F0000556845F48005556005689D4218D10B6809
:100F1000102B01D0112B13D1536843F400035360FD
:100F2000096810290CD10A490A4A0968B1FBF2F193
:100F300001EB8101490000E0491E00910029FBD12D
:100F400080F83C40002078BD002301400020014093
:100F50006400002040420F007047704770B504469F
:100F600000680668456816F0020F05F020012AD0D7
:100F700049B3216CC90603D4216C41F4007121648A
:100F8000816811F0405F17D1217EA9B9C16A11F4BF
:100F9000700F02D0816849050ED4416821F020010C
:100FA0004160206C20F480702064206CC00403D465
:100FB000206C40F0010020642046FFF7CDFF21683F
:100FC0006FF01200086016F0040F05F0800132D0B7
:100FD00089B3206CC00603D4206C40F40050206418
:100FE0002068816811F4401F1ED1816B11F4401FED
:100FF00002D08168490517D44168490514D4816835
:1010000011F0405F10D1217E71B9416821F080015B
:101010004160206C20F480502064206CC00503D413
:10102000206C40F0010020642046FFF7DDFC2168C1
:101030006FF00C00086016F0010F05F040010FD0B2
:1010400071B120680068C0070AD0206C40F480307D
:101050002064204600F043F821686FF0010008602A
:1010600016F0200F05F080610ED000290CD0606CC6
:1010700040F00200606420686FF0200505602046A3
:10108000FFF76BFF2068056070BD70B504004FF07E
:10109000000503D0206C002610B107E0012070BDD0
:1010A000204600F01DF8666484F83C60206CC006A1
:1010B00010D4206C20F4885040F0020020642046B8
:1010C000FFF776FA6664206C20F0020040F0010021
:1010D000206400E0012584F83C60284670BD70471C
:1010E00070B586B0064614216846FFF754F92849C2
:1010F000306888424AD127480025016841F4807150
:1011000001600068234900F4807014390590086874
:1011100040F004000860086800F0040005900868CA
:1011200040F0010008600868032400F00100059009
:101130003F208DE831006946174800F0CBF90F20B9
:101140008DE831006946154800F0C4F9154C144883
:10115000C4E900050015A560C4E9035040006061C2
:101160008000C4E90605C000C4E90805204600F077
:10117000FDF808B1FFF757FBB463002211461220B7
:10118000A66300F013FB122000F002FB06B070BD56
:1011900000200140443802400008024000000240A4
:1011A000106402409801002090F83510022903D005
:1011B0008021416501207047052180F835100068C5
:1011C000016821F001010160002070472DE9F8431A
:1011D00004464FF00009CDF8009063484FF41651D3
:1011E000A56D0068B0FBF1F72E6894F85C1008203C
:1011F00000FA01F131420FD021680A6852070BD57D
:101200000A6822F004020A6094F85C108840A86022
:10121000606D40F00100606594F85C104FF00108CB
:1012200008FA01F0304208D021684969090604D55E
:10123000A860606D40F00200606594F85C100420C6
:101240008840304208D021680968890704D5A86021
:10125000606D40F00400606594F85C1010208840D8
:10126000304218D021680968090714D5A8602068A1
:101270000168490304D50068000308D5A16C07E0A4
:101280000168C90503D4016821F008010160216CDF
:1012900009B12046884794F85C10202088403042ED
:1012A00031D021680968C9062DD5A86094F83500A9
:1012B00005282068016806D0490347D50068000367
:1012C0001DD4616C1CE021F01601016020684169A9
:1012D00021F080014161206C08B9A06C20B1206828
:1012E000016821F00801016094F85C103F208840FB
:1012F000A86084F8358084F83490216D1FE0E16B9C
:1013000009B120468847606D00282BD0606DC0076A
:1013100014D0052084F835002068016821F001010F
:1013200001600098401C0090B84203D82068006813
:10133000C007F6D184F8358084F83490E16C002938
:1013400010D001B02046BDE8F04308470168C90548
:10135000D5D4016821F01001016084F8358084F84B
:101360003490CCE7BDE8F883640000202DE9F0411B
:10137000044600F0ADF906465CB1022084F8350061
:10138000002584F834502068016821F001010160D3
:101390000DE00120BDE8F08100F09AF9801B0528DE
:1013A00005D920206065032084F83500F2E7206825
:1013B0000068C007F0D12268116820480140D4E9D4
:1013C00001031843D4E903363343184363691843D0
:1013D000A3691843E3691843236A18430843616A01
:1013E000042903D1D4E90B13194308431060206882
:1013F0004069666A20F0070130460E430127042841
:101400000CD1A06A0643E06A40B12046FFF7CCF950
:1014100020B14020606584F83570BAE720684661E5
:101420002046FFF7ADF994F85C203F2191408160A0
:10143000656584F835700020ACE700003F8010F04F
:101440002DE9F0410446866D90F83400002501280E
:101450000DD0012084F8340094F835700020012F5D
:1014600007D084F8340002252846BDE8F081022028
:10147000FBE7022784F8357060652046FFF7BEF968
:1014800094F85C103F208840B0602068016841F00B
:1014900016010160206C20B12068016841F008014C
:1014A00001602068016841F001010160DCE7000093
:1014B00070B5044600F00CF90546601C02D00448E3
:1014C0000078044400F004F9401BA042FAD370BD38
:1014D000B40000202DE9F84FDFF8BCA1002201255F
:1014E00003264FF00F090AF1040BAAF1040E00BF06
:1014F0000B6805FA02F42340A34270D10F7907F07C
:101500000307012F01D0022F16D187684FEA420846
:1015100006FA08FC27EA0C07D1F80CC00CFA08FC04
:101520004CEA070CC0F808C04768A7430C79C4F31D
:10153000001494403C4344600C79E443A4070AD06F
:10154000C4684FEA420C06FA0CF7BC438F6807FAEE
:101550000CF72743C7600C7904F00304022C12D166
:10156000D40800EB840CDCF820405707FF0E09FA82
:1015700007F824EA0804D1F8108008FA07F848EAC6
:101580000408CCF8208004684FEA420C06FA0CF7F5
:10159000BC430F7907F0030707FA0CF727430760EE
:1015A0004C6814F4403F70D03C4C276847F48047A7
:1015B0002760246822F0030704F480440094384C28
:1015C00007EB040CDCF8084897074FEA177809FA8C
:1015D00008F7BC43334FB84202D1002724E054E05F
:1015E000314FB84201D101271EE0304FB84201D13E
:1015F000022719E02E4FB84201D1032714E02D4FE6
:10160000B84201D104270FE02B4FB84201D1052782
:101610000AE02A4FB84201D1062705E0284FB84218
:1016200001D1072700E0082707FA08F72743CCF87D
:101630000878DAF800405746D1F804C09C435FEAC6
:10164000CC2C00D51C433C60DBF800405F46D1F851
:1016500004C09C435FEA8C2C00D51C433C60DEF840
:1016600000407746D1F804C09C435FEA8C3C00D52B
:101670001C433C60084F083F3C68D1F804C09C43C1
:101680005FEACC3C00D51C433C60521C102AFFF49E
:101690002FAFBDE8F88F0000083C014044380240FD
:1016A00000300140000002400004024000080240F7
:1016B000000C0240001002400014024000180240DA
:1016C000001C02400AB1816170470904FBE7000079
:1016D0000148806870470000B4000020024881681B
:1016E0000278114481607047B40000200B4810B5A7
:1016F000016841F400710160016841F4806101609A
:10170000016841F480710160032000F06FF80F2040
:1017100000F006F800F024F8002010BD003C024064
:1017200070B50D4D04464FF47A712878B1FBF0F096
:101730000A490968B1FBF0F001F017FA48B9102C1A
:1017400007D200222146501E00F030F800206C60C5
:1017500070BD012070BD0000B400002064000020B6
:101760000A4808B5016841F480410160006800F44E
:10177000804000900548001F016841F080510160E1
:10178000006800F08050009008BD0000443802401E
:10179000002809DB00F01F02012191404009800070
:1017A00000F1E020C0F8001170470000F0B40E4BCB
:1017B0001B680C46C3F30223C3F10705042D00D9AF
:1017C0000425191D072901D2002300E0DB1E012694
:1017D00006FA05F1491E214099409E40761E1640AA
:1017E0003143F0BC04F076BA0CED00E0064900F09D
:1017F000070208684FF6FF03184040EA0220034A38
:1018000010430860704700000CED00E00000FA058E
:1018100070470068416200207047F0B50368586A5D
:1018200039B19C6A4FF4827600EB144400204D1EBF
:101830000AE040EA024098620FE006EB8007DF59B9
:10184000401C04EB1744C0B2A842F6D344EA02405D
:101850004FF4807202EB810158500020F0BDD0F8A7
:10186000E00403F066B901EBC10200EB8202D0F89C
:10187000E004126A03F0B7B801EBC10200EB820288
:10188000D0F8E004D2F8602203F009B9D0F8E004FF
:1018900003F051B90A0601F00F0101EBC10100EBA1
:1018A000810101D5143101E001F51571006804F0E2
:1018B00037B870B504460B0601F00F0000EBC0010D
:1018C00004EB81014FF001024FF0000502D54A758B
:1018D000143103E081F8555201F51571087094F840
:1018E0009404012808D084F89424206803F032FD81
:1018F00084F89454002070BD022070BD70B5044679
:1019000001F00F002279904201D9012070BD0B0631
:1019100001F00F0101EBC10104EB81014FF0010265
:101920004FF0000502D54A75143103E081F8555295
:1019300001F515718D70087094F89404012808D091
:1019400084F89424206803F077FE84F894540020EF
:1019500070BD022070BD01F00F0101EBC10100EB71
:101960008100D0F8680270472DE9F04104460F0667
:1019700001F00F0000EBC00104EB81014FF0010604
:101980004FF0000502D54E75143103E081F8555231
:1019900001F51571C2F30A0208708A600B714A786A
:1019A00002B14883022B00D14D7194F894040128B0
:1019B00009D084F89464206803F01AFC284684F85F
:1019C0009454BDE8F0810220FBE710B501F00F044C
:1019D00004EBC40100EB8101C1E998230023C1F8A5
:1019E000683281F8553281F85442837901F51571D6
:1019F000012B00D1CA618279006803F075FE0020D6
:101A000010BD70B504460D4601F00F0021798842E3
:101A100001D9012070BD29064FF000064FF00102E8
:101A200006D500EBC00104EB81014A75143107E0D3
:101A300005EBC50104EB810181F8556201F51571D3
:101A40008A70087094F89404012807D084F89424CC
:101A5000206803F01DFE280702D007E0022070BDB9
:101A6000A17904F29C42206803F0BAFD84F89464E2
:101A7000002070BD10B501F00F0404EBC40100EBB1
:101A80008101C1E9082300238B6201234B7501F812
:101A9000144F8379012B00D1CA618279006803F069
:101AA00023FE002010BD00002DE9FC5F0568044600
:101AB000284603F0D1FF00287DD1206803F0F8FF0D
:101AC000002878D0D5F80808C0F30D20C4F8D40455
:101AD000206803F0EDFF800704D52068416901F01C
:101AE00002014161206803F0E3FFC10604F29C405B
:101AF000009034D52068816921F0100181612F6A3E
:101B000007F00F0000EBC00004EB8006C7F3434072
:101B100006F51576022802D0062811D01AE047F6FD
:101B2000F070074216D0C7F30A1217462846F1682C
:101B300003F0C2FFF0683844F0607069384408E090
:101B400008222846009903F0B7FF7069C7F30A110D
:101B5000084470612068816941F01001816120684A
:101B600003F0A6FF00034FF0080B4FF0000A4FF000
:101B700001097CD50026206803F079FF074674E050
:101B8000F80770D0F1B2206803F08AFF8046C007E2
:101B900007D005EB4611C1F8089B3146204601F0FD
:101BA000EDFD5FEA087024D505EB4611C1F808BBCE
:101BB0002068016C00E023E200EB46100191D0F8B0
:101BC000082BFB4B994205D9110403D54FF4004172
:101BD000C0F8081B204600F0F6FAF5490198884243
:101BE00007D9A079012804D120680121009A03F0C7
:101BF000F7FC5FEAC86004D505EB46111020C1F878
:101C0000080B5FEA88701DD56869000605D5D5F810
:101C1000040840F48061C5F8041806EBC60004EB24
:101C2000800090F8571200F51570012905D180F851
:101C300003A0F1B2204600F0E9F905EB46110220BD
:101C4000C1F8080B5FEA886004D505EB4610202137
:101C5000C0F8081B5FEA884005D505EB46104FF435
:101C60000051C0F8081B7F08761C002F88D120681F
:101C700003F01EFF40036ED5206803F0F1FE074617
:101C8000002666E0F80762D0F1B2206803F0F6FEA5
:101C90008046C00723D006F00F01D5F8342809FA92
:101CA00001F18A43C5F8342805EB4611C1F80899BB
:101CB000A07901280FD106EBC60004EB8000D0E923
:101CC00007211144016236B9606A20B920680121F8
:101CD000009A03F085FCF1B22046FFF7C4FD5FEAED
:101CE000087003D505EB4611C1F808B95FEAC86072
:101CF00004D505EB46111020C1F808095FEA4860D9
:101D000004D505EB46104021C0F808195FEA887039
:101D100016D53146284603F074FE06EBC60004EBE8
:101D20008000C17D1430012905D180F803A0F1B2F3
:101D3000204600F067F905EB46110220C1F80809BA
:101D40005FEA086003D53146204601F07DFD7F083B
:101D5000761C002F96D1206803F0AAFE002811DA25
:101D6000D5F8040820F00101C5F8041894F8CC0453
:101D700001282BD0204600F00BFA2068416901F0C1
:101D800000414161206803F093FE00050BD5D5F8B2
:101D90000808C00702D0204600F03EFA20684169DA
:101DA00001F400614161206803F082FEC00467D540
:101DB000D5F8040820F00100C5F8040810212068B7
:101DC00003F01FFE00214FF67F3220E084F8CCA400
:101DD00000212046FFF71CFDCFE700BF05EB4110B7
:101DE000C0F80829D0F8003923F40013C0F80039EE
:101DF000C0F8082BD0F8003B23F40013C0F8003BD8
:101E0000D0F8003B43F00063C0F8003B491C207948
:101E10008842E3D8D5F81C0840F00111C5F81C1819
:101E2000E07B002828460DD0D0F8840840F00B0154
:101E3000C5F88418D5F8440840F00B012846C5F8C9
:101E400044180DE0D0F8140842F22B010843C5F8FD
:101E50001408D5F8100840F00B012846C5F81018F2
:101E6000D0F8000820F4FE61C5F80018A1792068B8
:101E7000009A03F0B5FB2068416901F4805141618B
:101E8000206803F015FE800415D5206803F0F0F9F2
:101E9000206803F0D4FDE07100F070FA0146E279A9
:101EA000206803F067FE204600F05CF92068416975
:101EB00001F400514161206803F0FAFD000707D5E5
:101EC000204600F069F92068416901F0080141618C
:101ED000206803F0EDFD000616D5A86920F080010A
:101EE000A96101260DE000BF06EBC60004EB8000EF
:101EF00090F85702012803D1F1B22046FFF7CAFC3F
:101F0000761C2079B042EFD8206803F0D1FDC002E2
:101F10001FD501264F4614E005EB4610D0F8000906
:101F200006EBC60104EB81010A7E012A08D10028D4
:101F300006DACF75F0B240F080012046FFF7AAFC28
:101F4000761C2079B042E7D82068416901F48011FD
:101F50004161206803F0ACFD800234D501204A467F
:101F600029E000BF05EB4011D1F8001B00EBC003D6
:101F700004EB830393F85862012E1BD1002919DA70
:101F800094F8D464C1F3004106F001068E4211D1E9
:101F900083F85722A96941F08003AB61696909069A
:101FA00008D4D5F8040840F40070C5F8040805E02A
:101FB0000A30544F401C21798142D3D820684169AE
:101FC00001F400114161206803F072FD400007D563
:101FD0002046FFF744FC2068416901F080414161DF
:101FE000206803F065FD40070AD52068456868074A
:101FF00002D52046FFF74AFC20684168294341602A
:10200000BDE8FC9FD0F8E00402F0E7BDD0F8E004A2
:1020100002F0F7BDF8B5040005D094F895042668E1
:10202000002510B106E00120F8BD84F89454204644
:1020300000F056F8032084F89504B6F1A04F00D1C3
:10204000A571206803F0C6FA207C8DF8000094E8A2
:102050000F0003F01BF90226B8BB0021206803F033
:102060004AFD90BB002001270DE000BF00EBC0013E
:1020700004EB81014F750875C8850D76CD610D6241
:10208000401CC0B24D6221798142EFD8002011E09E
:1020900000EBC00104EB810181F8555281F8540234
:1020A00081F85852C1F85C52C1F86052401CC0B26D
:1020B000C1F8645221798142EAD8207C8DF8000071
:1020C00094E80F0003F0C8F910B184F89564AAE70A
:1020D000657484F89574206803F0B0F90020F8BDA9
:1020E00010B586B0044614216846FEF754F92068FE
:1020F000B0F1A04F2FD119480021026842F001022F
:102100000260006800F0010005904FF4C05000909C
:102110000220CDE90101032003900A2004906946C2
:102120000F48FFF7D7F90D48001D016841F0800105
:1021300001600A481430016841F480410160006880
:10214000002200F4804005900E214320FFF72EFB73
:102150004320FFF71DFB06B010BD000030380240E1
:102160000000024070B50446C079012570B1022814
:1021700001D0FEF758FB2946D4F8E00402F0B0FD88
:10218000D4F8E004BDE8704002F064BD0025F2E739
:10219000D0F8E00402F08DBDD0F8E00402F093BD69
:1021A00010B5044690F8940401280AD0012084F860
:1021B00094046174206803F0CCFC002084F894043B
:1021C00010BD022010BDD0F8E02400F29C41104662
:1021D00002F092BD10B50446006894F894140129E9
:1021E00009D0012184F89414C168490609D5617B9E
:1021F000012902D005E0022010BD816B41F480313D
:102200008163206803F0DBFB206803F009F90020FC
:1022100084F8940410BD000010B50446D0F8E00422
:1022200002F0ACFD2068D0F8001E41F00101C0F8BA
:10223000001EE07A002804D00248016841F006013F
:10224000016010BD10ED00E02DE9F0470E460500DD
:1022500065D0DFF81481D8F80000F7B200F007006D
:10226000B04207D288F80070D8F8000000F00700EC
:10227000B04254D128683D4C810712D5400703D5A0
:10228000206840F4E05020602878000703D52068DB
:1022900040F4604020602068A96820F0F000084306
:1022A00020602878C0072DD0304968680839012897
:1022B00012D0022813D0032811D0096889070029F9
:1022C0002DDA216821F0030101432160FFF700FAB4
:1022D000814641F2883A0EE009688903EFE7096810
:1022E0008901ECE7FFF7F4F9A0EB0901514502D9A8
:1022F0000320BDE8F0872068696800F00C00B0EBAF
:10230000810FEFD1D8F80010404601F00701B1422B
:1023100007D90770006800F00700B04201D0012023
:10232000E7E72878400705D52068E96820F4E05001
:10233000084320602878000706D52068296920F422
:10234000604040EAC100206000F01EF82168084AA1
:10235000C1F30311515CC840064908600648006893
:10236000FFF7DEF90020C4E7003C024008380240D5
:102370003864000864000020B800002001480068AC
:102380007047000064000020154810B5006810F088
:102390000C02144813D04110042A0FD0082A0ED181
:1023A0000F4C241F2268236802F03F025B0207D50E
:1023B0002068C0F38810A0FB010106E0084610BDAC
:1023C0002168C1F38811A1FB00010023FDF76CFF18
:1023D0002168C1F30141491C4900B0FBF1F010BD77
:1023E000083802400024F4002DE9F84F04006ED0B4
:1023F0002078DFF84C93C007A9F104054AD009F111
:1024000004000168C1F38101012908D00068C0F30C
:10241000810002280AD1D9F80000400206D52868B8
:10242000800337D560680028E1D033E06068B0F5FC
:10243000803F10D0B0F5A02F286810D020F4803055
:102440002860286820F4802028606068A8B1FFF721
:102450003FF906460DE0286840F48030F4E740F488
:1024600080202860F7E700BFFFF732F9801B64285F
:1024700073D828688003F7D50CE0FFF729F90646E2
:1024800005E000BFFFF724F9801B6428F0D8286816
:102490008003F7D42078DFF8AC8280074FF0000A81
:1024A0003ED5A748001D016811F00C0F08D0006848
:1024B000C0F3810002280BD1D9F80000400207D4F4
:1024C0002868800716D5E068012800D112E033E1C2
:1024D000E068B8B10120C8F80000FFF7F9F8064637
:1024E00005E000BFFFF7F4F8801B0228C0D8286879
:1024F0008007F7D52868216920F0F80040EAC1007C
:1025000028600DE0C8F800A0FFF7E2F8064604E0F6
:10251000FFF7DEF8801B02281FD828688007F7D451
:102520002078000722D5864F87486169703771B1DE
:1025300001210160FFF7CCF8064604E0FFF7C8F878
:10254000801B022809D838688007F7D50EE0C0F84C
:1025500000A0FFF7BDF8064605E082E0FFF7B8F8F7
:10256000801B02287DD838688007F7D42078400780
:1025700068D5DFF8CCB100270BF13C0BDBF800008D
:10258000C0000BD4DBF8001041F08051CBF80010F4
:10259000DBF80000012700F0805000906B4E30689F
:1025A000C00510D4306840F480703060FFF790F8B8
:1025B000009005E0FFF78CF80099401A022850D8E7
:1025C0003068C005F6D55E4EA0686C3601280FD085
:1025D0000528306810D020F001003060306820F00D
:1025E00004003060A068B8B1FFF772F800900FE007
:1025F000306840F00100F4E740F004003060F7E795
:10260000FFF766F80099411A41F28830814266D896
:1026100030688007F4D50EE0FFF75AF8009007E025
:10262000FFF756F80099411A41F28830814256D896
:1026300030688007F4D42FB1DBF8001021F080510E
:10264000CBF80010A069C8B33D49091D0968C1F362
:10265000810102294AD00228504607D0C8F86000FC
:1026600000E03CE0FFF734F804463BE04746C8F89A
:102670006000FFF72DF8064605E000BFFFF728F8D9
:10268000801B02282BD828688001F7D4D4E90701E1
:102690000843A16A2E4A490802EB0141626A41EAF5
:1026A0008211084394F82C1040EA0161C9F8001027
:1026B00001203866FFF70CF8044606E03EE000BF54
:1026C000FFF706F8001B022809D828688001F7D513
:1026D00034E000BFFEF7FCFF001B022802D90320F4
:1026E000BDE8F88F28688001F4D427E00128F7D0EE
:1026F000D9F80000E26900F4800191421CD1226AFD
:1027000000F03F01914217D147F6C071626A014063
:10271000B1EB821F10D1A26A4FF0FF3300F44031B9
:1027200003EB5202B1EB024F06D194F82C1000F0EB
:102730007060B0EB016F01D00120D1E70020CFE73E
:102740000438024000004742800E474200700040BB
:102750000000FFFF7047000038B5016804464A6872
:102760008868C043430606D5C30704D1D3435B063C
:1027700001D4216C05E0830708D4D3431B0605D49C
:10278000616C01B02046BDE830400847830603D5A0
:10279000430601D5C30551D4D3439B064ED443060B
:1027A0000AD494F85130032B49D0636D43F00403ED
:1027B0006365CB688B680093830609D4636D43F02F
:1027C000010363658B6800930B6823F040030B6083
:1027D000C00506D4606D40F0080060652068806820
:1027E0000090606D002829D02068416821F0E00148
:1027F0004160012084F85100900701D4D00722D015
:102800002068416821F003014160114DE06C40B146
:102810000565E06CFEF7C8FC18B1606D40F0400043
:102820006065A06C002809D00565A06CFEF7BCFCB3
:10283000002803D0606D40F04000606538BDC86876
:102840008868009038BD2046FFF784FF38BD00003F
:10285000B539000870B5040009D0606A002540B1A0
:1028600025616561A56294F8510040B10CE001203A
:1028700070BD6068B0F5827FF4D0E561F2E784F85E
:102880005050204600F044F8022084F8510020689F
:10289000016821F040010160A088218900F4827064
:1028A00001F404410843A18901F400610843217C3B
:1028B00001F002010843217D01F001010843218B51
:1028C00001F400710843217F01F03801084394F8B6
:1028D000201001F080010843218D01F400510843CC
:1028E00021680860A069042101EA104094F82410CE
:1028F00001F010010843216848602068C16921F493
:102900000061C1616565012084F85100002070BD3F
:102910002DE9F04F87B0064614216846FDF73BFDD0
:10292000404C31684048022203230025A14257D180
:102930003D4914310C6844F480540C60096801F47A
:1029400080510591016841F001010160006869460C
:1029500000F001000590E0208DE825000520CDE97C
:1029600003303248FEF7B6FD324C31484FF0C067B5
:1029700001C44FF48068E4E802754FF400694FF435
:10298000005BA4E8200B4FF4003A64E8075A29489A
:102990006562FEF7EBFC08B1FDF745FFF464A66342
:1029A000244C234860341830E4E802074020A4E8AF
:1029B000210B204864E8075A60306562FEF7D6FCB8
:1029C00008B1FDF730FFB464002211462320A6634E
:1029D000FEF7ECFE2320FEF7DBFE07B0BDE8F08F2C
:1029E000154CA142F9D1104910310C6844F400444F
:1029F0000C60096801F400410591016841F004018F
:102A000001600068694600F0040005904FF4E05052
:102A10008DE825000620CDE903300848FEF75AFD71
:102A2000DBE7000000300140303802400000024087
:102A300040640240A8020020003C00400008024020
:102A40007047704770B5044690F8510065680128DA
:102A500006D0B5F5827F3AD1A568A5BB042836D14A
:102A600091B38AB383B394F8500001282FD001208A
:102A700084F8500094F85100042802D0052084F80E
:102A80005100002565652163A386E386A263A387C1
:102A9000E3872564656494F85100042819D0E16C3B
:102AA000274808642748E16CC863E16C2648C8647D
:102AB000E06C0565E38F2168A26B0C31E06CFEF7DA
:102AC000BFFC00BB0AE002E0FFE7012070BD02206E
:102AD00070BDE16C1D4808641D48E4E7206841684A
:102AE00041F001014160A06C0564A06CC563A06C5D
:102AF000C564A06C0565E38E2268216B0C32A06C66
:102B0000FEF79EFC30B1606D40F01000606584F807
:102B10005050DAE720680168490603D4016841F0A3
:102B20004001016084F850502068416841F0200164
:102B300041602068416841F002014160002070BDA1
:102B4000F1390008653A0008C5390008E73900087E
:102B5000FB39000800680349884201D103F040B9FD
:102B60007047000000300140704710B5401EB0F1C2
:102B7000807F01D3012010BD4FF0E02460610F2160
:102B8000601703F0A7F80020A06107202061002053
:102B900010BD7047704710B590F83C20012A22D034
:102BA000012280F83C20CA688C6822F440722243DB
:102BB0004C6822F4806222430C6822F400622243B3
:102BC0000C6922F4805222434C6922F400522243C1
:102BD000C969002322F480420A4301684A6480F8EC
:102BE0003C30002010BD022010BD000070B590F8F0
:102BF0003C20012A32D0012480F83C40022280F897
:102C00003D2003685A689D6822F070060A683243C6
:102C10005A60134B02689A4214D0B2F1804F11D01F
:102C2000104B9A420ED0104B9A420BD00F4B9A4247
:102C300008D00F4B9A4205D00E4B9A4202D00E4B51
:102C40009A4204D1496825F080031943916080F8C5
:102C50003D40002180F83C10084670BD022070BD48
:102C6000000001400004004000080040000C00404B
:102C700000040140004001400018004010B5044627
:102C8000022249B104290ED0082913D094F8450036
:102C9000012816D0012010BD94F842000128F9D176
:102CA00084F842200FE094F843000128F2D184F820
:102CB000432008E094F844000128EBD184F8442034
:102CC00001E084F845200422206801F036F92068EC
:102CD000416C41F40041416411492068884214D09C
:102CE000B0F1804F11D00F4988420ED00E49884272
:102CF0000BD00E49884208D00D49884205D00D49B5
:102D0000884202D00C49884204D1816801F0070151
:102D1000062903D0016841F001010160002010BDC7
:102D2000000001400004004000080040000C00408A
:102D300000040140004001400018004010B50400AC
:102D400003D094F83D0010B107E0012010BD002031
:102D500084F83C00204600F01FF8022084F83D0073
:102D6000211D206801F074F8012084F8460084F8E1
:102D70003E0084F83F0084F8400084F8410084F865
:102D8000420084F8430084F8440084F8450084F845
:102D90003D00002010BD000008B5114A016811482F
:102DA000914207D1016841F001010160006800F023
:102DB000010009E00C4A914211D1016841F400314F
:102DC0000160006800F400300022009011461920D4
:102DD000FEF7ECFCBDE808401920FEF7D9BC08BDA1
:102DE00000000140443802400044014070B50446F0
:102DF00090F83C000025012817D0012684F83C609B
:102E0000022084F83D002068826822F0770222F4D4
:102E10007F4282600868502838D00DDC20284FD0CF
:102E200005DC90B3102811D14AE0022070BD302893
:102E300046D040280AD13BE060282FD070280DD022
:102E4000B0F5805F03D0B0F5005F12D0012584F8A3
:102E50003D60002084F83C00284670BDCB68D1E975
:102E60000121206801F076F82068816841F077013F
:102E700009E0CB68D1E90121206801F06BF82068F6
:102E8000816841F480418160E1E719E0CA684968DE
:102E9000206801F033F95021206806E0CA684968CB
:102EA000206801F03CF96021206801F05DF8CEE770
:102EB000CA684968206801F021F940212068F4E7D8
:102EC000226801461046F0E770472DE9F0410446BC
:102ED0000068C66805694FF00007A90713D5B10758
:102EE00011D5F91E016101202077206880698007D3
:102EF000204602D0FFF7E8FF04E000F0BFF82046CC
:102F000000F051F92777680716D5700714D52168A6
:102F10006FF004000861022020772068806910F4B7
:102F2000407F204602D0FFF7CFFF04E000F0A6F874
:102F3000204600F038F92777280715D5300713D534
:102F400021686FF008000861042020772068C069BC
:102F50008007204602D0FFF7B7FF04E000F08EF8AC
:102F6000204600F020F92777E80616D5F00614D59C
:102F700021686FF010000861082020772068C06980
:102F800010F4407F204602D0FFF79EFF04E000F0DF
:102F900075F8204600F007F92777E80708D0F00712
:102FA00006D021686FF001000861204600F060F94A
:102FB000280608D5300606D521686FF08000086124
:102FC0002046FFF7E6FD680608D5700606D521689D
:102FD0006FF040000861204600F04BF9A8060AD5C2
:102FE000B00608D521686FF0200008612046BDE8D2
:102FF000F041FFF7CFBDBDE8F0810000F0B587B02C
:10300000044614216846FDF7C6F91849206888422D
:103010002AD117480024016841F0020101600168CB
:1030200001F002010591016841F0010101600068B1
:10303000022500F0010005904FF46040CDE9000545
:1030400002AA0326012782E8D00069460948FEF754
:1030500041FA4FF4E060CDE9000502AA694682E832
:10306000D0000548FEF736FA07B0F0BD0000014079
:10307000303802400004024000000240704770B542
:10308000044690F83C0000260D4601280FD0012090
:1030900084F83C006AB1042A1DD0082A2FD00C2ADB
:1030A0003FD00126002084F83C00304670BD02204D
:1030B00070BD206800F060FF2068816941F0080160
:1030C00081612068816921F0040181612068816942
:1030D0002A69114311E0206800F07EFF20688169B1
:1030E00041F4006181612068816921F4806181611E
:1030F000206881692A6941EA02218161D2E720685A
:1031000000F0A0FF2068C16941F00801C16120689A
:10311000C16921F00401C1612068C1692A691143B4
:1031200011E0206800F0C2FF2068C16941F400612D
:10313000C1612068C16921F48061C1612068C169F1
:103140002A6941EA0221C161ACE710B5040003D04D
:1031500094F83D0010B107E0012010BD002084F874
:103160003C00204600F01EF8022084F83D00211D9E
:10317000206800F06DFE012084F8460084F83E00CF
:1031800084F83F0084F8400084F8410084F842004D
:1031900084F8430084F8440084F8450084F83D0036
:1031A000002010BD7047704710B50446022249B197
:1031B00004290ED0082913D094F84100012816D014
:1031C000012010BD94F83E000128F9D184F83E207A
:1031D0000FE094F83F000128F2D184F83F2008E086
:1031E00094F840000128EBD184F8402001E084F8F5
:1031F00041200122206800F093FE16492068164AFB
:10320000884201D0904203D1436C43F400434364AD
:103210002068884213D0B0F1804F10D00F49884207
:103220000DD00F4988420AD00E49884207D09042FB
:1032300005D00D49884202D00C49884204D18168EA
:1032400001F00701062903D0016841F00101016086
:10325000002010BD000001400004014000040040B7
:1032600000080040000C00400040014000180040F1
:1032700070477047FEE70000F0B500230A243025B0
:1032800037261F4611E000BFB4EB107F02D905EBD3
:10329000107C01E006EB107C01F813C001EB430C3D
:1032A00000015B1C8CF80170DBB29342ECD3F0BDE3
:1032B0002DE9F0418CB00024009401940294202167
:1032C00004A80394FDF767F84948484901250160BF
:1032D0004FF480310561C0E90114047680F8204084
:1032E0000903C0E90A414FF00708C0F81C80C46018
:1032F00080F830404561FDF7C8FE08B1FDF793FA4C
:103300000D20CDE90005694602943948FDF77EFDA0
:1033100008B1FDF788FA0227CDE90047694634482D
:10332000FDF774FD08B1FDF77EFA0326CDE90056DE
:1033300069462F48FDF76AFD08B1FDF774FA0420CD
:10334000CDE9007069462A48FDF760FD08B1FDF738
:103350006AFA0520CDE9006069462548FDF756FD6B
:1033600008B1FDF760FA0E20009006200190694632
:103370001F48FDF74BFD08B1FDF755FA0F20CDE9C9
:10338000000869461A48FDF741FD08B1FDF74BFA00
:103390000A20CDE9040506944FF48010CDE90A40D7
:1033A0008DF8254008968DF8244004A9104807940C
:1033B000FDF73CFA08B1FDF736FA0B20CDE904071A
:1033C00004A90B48FDF732FA08B1FDF72CFA0C20DE
:1033D000CDE9040604A90648FDF728FA002801D023
:1033E000FDF721FA0CB0BDE8F0810000002001409B
:1033F00050010020114808B5016841F480010160C6
:103400000068002200F48000009011463820FEF78A
:10341000CDF93820FEF7BCF9002211463A20FEF71C
:10342000C5F93A20FEF7B4F9002211463B20FEF719
:10343000BDF9BDE808403B20FEF7AAB9303802408C
:103440002DE9F04F87B014216846FCF7A4FF3848F7
:103450000024016841F080010160016801F08001F1
:103460000591016841F004010160016801F0040167
:103470000591016841F001010160016801F001015D
:103480000591016841F002010160016801F002014B
:103490000591016841F0080101600068DFF894803F
:1034A00000F008000590002210214046FEF70AF9BE
:1034B000DFF8849041F6BB46002231464846FEF7CD
:1034C00001F9DFF878A04FF4007700223946504622
:1034D000FEF7F8F8DFF868B0002204215846FEF73E
:1034E000F1F8102000900125CDE9015469464046CD
:1034F0000394FDF7EFFF0096CDE901546946484675
:103500000394FDF7E7FF0097CDE901546946504663
:103510000394FDF7DFFF04200090CDE901546946D4
:1035200058460394FDF7D6FF07B0BDE8F08F0000C2
:10353000303802400000024000040240000802400F
:10354000000C0240114810B50F4901604FF4827120
:10355000416000214FF40062C0E902120122C0E97B
:103560000412520282612022C0E907214162816275
:103570000A21C162FFF76EF9002803D0BDE81040B0
:10358000FDF751B910BD000000300140F8010020E6
:103590000F4810B50D4901604FF482714160002160
:1035A0008160C1604FF400720161C0E90512C16120
:1035B0000162416281620A21C162FFF74BF9002872
:1035C00003D0BDE81040FDF72EB910BD003C00400F
:1035D000500200200C4810B50A490160A721416043
:1035E00000214FF47A72C0E90212016180218161E9
:1035F000FFF7A4FB002803D0BDE81040FDF713B986
:1036000010BD000000440140B003002030B595B06B
:1036100000240F9410941194129413941C21684662
:103620001494FCF7B8FE202107A8FCF7B4FE394833
:103630003749C0E900142021816041F26701C0E9E7
:1036400003148021C0E90541FFF778FB08B1FDF7BD
:10365000EAF84FF480550FA92E480F95FFF7C6FBE7
:1036600008B1FDF7E0F82B48FFF76FFD08B1FDF753
:10367000DAF87020CDE9130413A92648FFF7B6FA4B
:1036800008B1FDF7D0F86020009040F63300CDE996
:103690000104039404940594002269461D4806948D
:1036A000FFF7EDFC08B1FDF7BEF8042269461948A2
:1036B000FFF7E5FC08B1FDF7B6F8082269461548A2
:1036C000FFF7DDFC08B1FDF7AEF84FF47A6001902A
:1036D0000C2269460F48FFF7D2FC08B1FDF7A3F8AA
:1036E0004FF48060CDE90740C820CDE909404FF490
:1036F00000500E94CDE90B5007A90648FFF74BFA8E
:1037000008B1FDF790F80348FFF778FC15B030BD1D
:10371000000001406803002010B500220F49104846
:1037200001F03CF908B1FDF77EF80E490C4801F0B4
:1037300051FB08B1FDF777F80B49094800F0CEFEC0
:1037400008B1FDF770F8064801F0C8FB002803D067
:10375000BDE81040FDF767B810BD00000000002074
:10376000F80300201801002050000020FEE7FEE7CB
:103770000148FEF799B90000F41A00202DE9F04144
:1037800003680D4604461E6C03EB4511D1F8080B87
:1037900094F806E04FF400474FF0200C04F29C42EE
:1037A000BEF1010F09D0DFF898E0764539D1020467
:1037B00032D500BFC1F8087B3FE0224B5FEA007EB4
:1037C00004D59E4239D90004F4D436E05FEA806E15
:1037D00002D5C1F808CB30E010F0280F2DD19E4261
:1037E00001D90004E6D405EBC50004EB8000D1F854
:1037F000101BD0F87432C1F31201591AC0F86812C4
:1038000000F51570ADB903691BB1C2681144C16000
:103810000FE0012120680AE080060AD5C1F808CB34
:1038200007E035B9D4F8640218B90021184601F050
:10383000D7FEE9B22046FEF71FF80020BDE8F08170
:103840000A31544F0A30544F2DE9F84F0E4601EB20
:10385000C60100EB810481460568D4E909101434DF
:10386000884202D90120BDE8F88F081AA168814278
:1038700000D20846C01C870805EB46181BE000BFB5
:10388000A0EB010AA068504500D282460AF103006D
:10389000870899F8060000901FFA8AF3F2B22846CA
:1038A000E16802F0DBF9E16801EB0A00E0606169C0
:1038B00001EB0A006061D8F8180980B2B84205D35C
:1038C000D4E90401814201D20028D9D1D4E904010C
:1038D000884208D806F00F0101208840D5F8341836
:1038E0008143C5F834180020BDE77047B2EE040AE2
:1038F00080ED000A9FED070A002180ED010A9FED8F
:10390000060A80ED020A80ED030A016180ED050AD6
:103910007047000000002F440000000090ED020AF4
:10392000D0ED030A30EE600AD0ED000A20EE800AE6
:10393000D0ED010AF4EEC00AF1EE10FA01D2B0EEB9
:10394000600AF1EE600AF4EEC00AF1EE10FA01DD51
:10395000B0EE600A70470000D0ED050A0F4B016918
:1039600070EE600A10EE902A9A4201D9491C05E0D7
:1039700010EE902A0A4B9A4201DD491E016100EEC9
:10398000901ADFED081AB8EEE01AF0EE400A41EEA8
:10399000210AC0ED030A80ED050A70470000A0C0AF
:1039A0000000A040DB0FC9400148FEF7D5BE000073
:1039B000F801002010B5806B0021C187C186FEF799
:1039C000C9FE10BD10B5806B01684A6822F0030281
:1039D0004A60416D41F010014165012180F85110AC
:1039E000FEF7B8FE10BD10B5806BFFF72AF810BDCA
:1039F00010B5806BFFF7B8F810BD70B50546846B45
:103A0000FDF766FE024628680068C00526D42068D7
:103A1000416821F020014160A06818B96068B0F5E4
:103A2000827F16D02068416821F001014160642145
:103A3000204600F044F808B1202060650020E087AF
:103A4000012084F85100606D40B12046FEF782FEEF
:103A500070BD2068416821F00301E7E72046FEF7CA
:103A6000EFFF70BD70B50546846BFDF731FE024671
:103A700028680068C0051ED42068416821F0200134
:103A800041606421204600F049F818B1606D40F0B3
:103A9000200060652068416821F00301416000203A
:103AA000E086E087012084F85100606D18B120465F
:103AB000FEF750FE70BD2046FFF74CF870BDF8B51C
:103AC000044640684FF48273984221D1A0684FF4B5
:103AD0008065B0F5004F01D0A8420AD12068066881
:103AE00026F0400606606068984211D1A068A8429E
:103AF0000ED000920B4600228021204600F044F8B0
:103B0000002804D0606D40F0200060650320F8BDFF
:103B100000920B4600220121EFE70000F8B51546A0
:103B20000E460B46009204460122022100F02CF8BA
:103B3000A0B9134813490068B0FBF1F04FF47A7153
:103B4000484300906068B0F5827F0DD13346002273
:103B500080212046009500F017F870B1606D40F0AC
:103B6000200060650320F8BD009830B1401E009031
:103B700020688068C0430006F6D50020F8BD00002C
:103B80006400002000366E012DE9F8431E46914680
:103B900088460446089DFDF79BFD401B351AFDF73E
:103BA00097FD074626480068C0F3CB3068430AE01B
:103BB000701C09D0FDF78CFDC01BA8420FD275B157
:103BC0000098B8B3401E00902068816838EA010070
:103BD00033D000214945EBD10020BDE8F8832068AF
:103BE000416821F0E00141606068B0F5827F0BD14F
:103BF000A068B0F5004F02D0B0F5806F04D1206806
:103C0000016821F040010160A06AB0F5005F09D1B0
:103C10002068016821F4005101602068016841F4C6
:103C200000510160012084F85100002084F8500008
:103C30000320D2E7FFE70025C6E70121CAE700001D
:103C40006400002070470178407841EA0020704706
:103C50001848194A9FED191AD0ED010A70EE600A52
:103C600010EE901A914202DD70EEC10A06E010EEED
:103C7000901A134A914201D970EE810A9FED111AF0
:103C800080ED010A80EE810ADFED0F0A20EE201A96
:103C9000D0ED000AB7EE000A0C4830EE600AD0ED15
:103CA000021A20EE210A00EE810A80ED020A80ED60
:103CB000010A7047AC000020DB0F4940DB0FC94010
:103CC000DB0F49C017B75138EBC91841EC20002071
:103CD0000C489FED0B0A80ED030A9FED0B0A80ED67
:103CE000040AB0EE080A80ED060AB8EE080A80ED74
:103CF000070A9FED060A80ED050A80ED000A70476D
:103D00008FC2F53CEC20002052499D390000000094
:103D10001D4890EC020A30EE601A90ED050AD0EDD5
:103D2000040A00EE810A80ED050AD0ED060AB4EE21
:103D3000E00AF1EE10FA01DDC0ED050AD0ED051A3A
:103D400090ED070AF4EEC01AF1EE10FA01D280ED00
:103D5000050AD0ED051A90ED032A42EE011AC0EDD6
:103D6000081AF4EEE01AF1EE10FA02DCF0EE610A45
:103D700001E0C0ED080AF4EEC00AF1EE10FA01D23B
:103D800080ED080A70470000EC200020FDF7A6BC7B
:103D900030B593B030216846FCF7FDFA14210CA829
:103DA000FCF7F9FA1D480025016841F080510160D7
:103DB000006800F0805011901948016841F480417A
:103DC00001600068022400F48040119001200090FE
:103DD000000401908001CDE9064004200890A8204D
:103DE000CDE9090407200B906846FEF7FDFA08B1FB
:103DF00072B6FEE70CA90F2081E831004FF4A05005
:103E00000F904FF48050109005210CA8FEF71CFA7B
:103E1000002801D072B6FEE713B030BD4038024032
:103E2000007000400248016841F470010160704771
:103E300088ED00E010B50448FFF747F8BDE81040F2
:103E40000248FFF742B8000068030020B0030020DA
:103E5000F0B50268274B284D284E294F294C4FF0CA
:103E6000804C984209D0604507D0A84205D0B042A6
:103E700003D0B84201D0A04204D122F0700E4A68AB
:103E800042EA0E0298421BD0604519D0A84217D0D2
:103E9000B04215D0B84213D0A04211D01A4DA8425A
:103EA0000ED01A4DA8420BD0194DA84208D0194D7A
:103EB000A84205D0184DA84202D0184DA84203D1FF
:103EC00022F44075CA682A434D6922F080022A43D1
:103ED0008D68C5620D688562984201D0A04201D10B
:103EE00009690163016841F0040101600121416138
:103EF0000260F0BD000001400004004000080040E6
:103F0000000C00400004014000400140004401401A
:103F10000048014000180040001C00400020004004
:103F200010B501F01F030121046A99408C4304621B
:103F3000016A9A401143016210BD10B501F00F03F0
:103F40000421046A99408C430462016A9A40114337
:103F5000016210BD10B5846842EA032224F47F4454
:103F60000A432243826010BD826822F070020A4335
:103F700042F0070181607047F0B5036A026A22F0DF
:103F80000102026242688469124E24F073050C68D3
:103F90002C4323F002058B682B430D4DA84201D022
:103FA000B04205D123F00807CB683B4323F004035C
:103FB000A84201D0B04205D14D6922F440721543A8
:103FC0008A692A4342608461496841630362F0BDA3
:103FD0000000014000040140F0B5026A036A23F0CA
:103FE00010030362436884690D6824F4E64444EADC
:103FF00005248D6822F0200242EA05120F4D104E72
:10400000A84201D0B04206D1CF6822F0800242EA35
:10401000071222F04002A84201D0B04207D14D69F8
:1040200023F4406343EA85038D6943EA85034360D3
:104030008461496881630262F0BD000000000140B4
:1040400000040140F0B5026A036A23F4807303623E
:104050004368C46922F4007224F073050C68124EA0
:104060002C438D6842EA05220E4DA84201D0B04291
:1040700006D1CF6822F4006242EA072222F480626D
:10408000A84201D0B04207D14D6923F4405343EA1E
:1040900005138D6943EA05134360C4614968C16330
:1040A0000262F0BD000001400004014030B5046A26
:1040B000026A22F4805202624268C3690D6823F4E6
:1040C000E64343EA05238D6824F4005444EA0534AA
:1040D000084DA84202D0084DA84204D14D6922F4EF
:1040E000804242EA85124260C36149680164046209
:1040F00030BD0000000001400004014010B5036A1B
:10410000046A24F001040462846924F0F00444EA9F
:10411000021423F00A020A438461026210BD10B542
:10412000036A046A24F010040462846923F0A00383
:1041300024F4704444EA023243EA011182610162CC
:1041400010BD2DE9F0410C46D0F8D412D0F8C822A9
:1041500000EB8101D1F8C01229B304F00F0606EB81
:10416000860300EB830500276B694BB106EBC6069F
:1041700002EB8602D269B3FBF2F602FB1632A2B161
:10418000C1F81472D0F8D42200EB8200D0F8C40237
:1041900003692BB1D1F80802224601F50471984752
:1041A0000020BDE8F0810320FBE700231A462146EA
:1041B0006F6100F0F0FDF3E770B50546D0F8D4026A
:1041C00005EB8000D0F8C04294B1284600F0C2FC54
:1041D000C4F80C02D5F8D412D4F8040205EB81011E
:1041E000D1F8C412CA6804F503719047002070BD6D
:1041F000032070BD70B5234D0446297800F0EAFB1A
:104200002878002600F00F0000EB800004EB80000F
:1042100080F823606978204600F0DCFB687800F0C5
:104220000F0000EB800004EB800080F86361A97848
:10423000204600F0CFFBA87800F00F0000EB8000D4
:1042400004EB800080F82360C661D4F8D40204EB4C
:104250008000D0F8C01299B1D0F8C40240688047FD
:10426000D4F8D40204EB8000D0F8C00200F0BAFF0A
:10427000D4F8D40204EB8000C0F8C062C4F8BC6279
:10428000002070BDC400002010B5D0F8D41200EB9F
:104290008100D0F8C04284B1D0F8C41259B194F86A
:1042A0000002FF2807D08B6894F801222146984726
:1042B000FF2084F80002002010BD032010BD000084
:1042C0000A21018000487047C800002070B50646EA
:1042D00082210C4800F001FB05460121094800F04D
:1042E000FCFA04468121074800F0F7FA0DB11021CD
:1042F000A971402104B1A18000B1818043203080A8
:10430000004870BDD400002070B5064682210D48DB
:1043100000F0E3FA054601210A4800F0DEFA0446FF
:104320008121084800F0D9FA0DB11021A9714FF48C
:10433000007104B1A18000B1818043203080014828
:1043400070BD0000D400002070B5064682210C48E4
:1043500000F0C3FA05460121094800F0BEFA044600
:104360008121074800F0B9FA0DB11021A97140214F
:1043700004B1A18000B1818043203080004870BD2D
:10438000D40000202DE9F04704464FF40775284675
:1043900000F02AFF06004FF0000865D02946FBF721
:1043A000FAFFD4F8D4023E4D04EB80004FF0100920
:1043B000C0F8C062C4F8BC62207C4FF4007A0127C8
:1043C000E8B3402302222978204600F02EFC28780A
:1043D000402300F00F0000EB800004EB800080F829
:1043E000237002226978204600F01FFC68780823B9
:1043F00000F00F0000EB800004EB8000032280F847
:104400006371A978204601F00F0101EB810104EBF3
:104410008101C1F81C90A97800F007FCA87800F091
:104420000F0000EB800004EB800080F82370C6F8DA
:104430000482D4F8D402474604EB800000E01BE07D
:10444000D0F8C40206F501760068804737617761CD
:1044500032687AB1207C00B340236978204600F0AE
:10446000F0FB0020BDE8F087D4F8D41204EB810102
:10447000C1F8C0820220F5E753460222297820467F
:1044800000F0D3FB2878534600F00F0000EB8000CB
:1044900004EB800080F82370A3E75346DDE70000BB
:1044A000C400002010B5D0F8D41200EB8101D1F87F
:1044B000C01259B1027C084C002AD1F8042207D05E
:1044C0004023617800F0BDFB002010BD032010BD2B
:1044D0004FF40073F5E70000C400002039B1D0F8B4
:1044E000D42200EB8200C0F8C412002070470320E1
:1044F0007047D0F8D42200EB8200D0F8C00218B187
:10450000C0F804120020704703207047D0F8D4325E
:1045100000EB8300D0F8C00228B1C0F81022C0F828
:10452000081200207047032070472DE9FC41064621
:10453000D0F8D4020C4606EB80000021D0F8C072FF
:104540008DF80010ADF804100D4637B1217811F048
:1045500060022FD0202A4BD102E00320BDE8FC816D
:10456000E288F2B109060DD5D0F8C4026378394665
:10457000D0F808C01846E047E288072A00D9072289
:1045800039462DE0607887F80002E088402800D3A3
:104590004020C2B287F801223946304600F081F847
:1045A0002BE0D0F8C40263780022866821461846C2
:1045B000B04722E0607830B101281ED00A2809D027
:1045C0000B2815D110E096F89C02032810D1022286
:1045D00001A905E096F89C02032809D10122694649
:1045E000304600F07AF808E096F89C02032804D0E0
:1045F0002146304600F04AF803252846AEE7000081
:1046000010B5D0F8D41200EB8101D1F8C0220121FD
:104610001AB1D2F8143213B116E0032010BD0121F3
:10462000C2F814120949D2F81032097801F00F04C7
:1046300004EB840400EB84046361D2F81032D2F8F6
:10464000082200F0A8FB0021084610BDC40000208D
:1046500010B5D0F8B82200245268904700B1032466
:10466000204610BD0020704700207047134610B54B
:104670000A46002100F0E5FA002010BD134610B5EF
:104680000A46002100F087FB002010BD10B504464B
:10469000802100F061FB2046BDE81040002100F0C1
:1046A0005BBB10B50323C0F89432C0F85421C0F8A6
:1046B00058211346C0F864110A46002100F0C1FADF
:1046C000002010BD10B50521C0F8941200231A4631
:1046D000194600F0B6FA002010BD10B50223C0F84C
:1046E000943242618261134641620A46002100F021
:1046F00052FB002010BD10B50421C0F89412002315
:104700001A46194600F047FB002010BD10B50A46B6
:10471000024903A000F00FF9004810BDD4060020A4
:1047200043444320436F6E6669670000122008808F
:10473000004870472000002010B50A46024903A037
:1047400000F0F9F8004810BDD4060020434443208F
:10475000496E74657266616365000000042008801C
:10476000004870471C00002010B50A46024903A00B
:1047700000F0E1F8004810BDD406002053544D6904
:1047800063726F656C656374726F6E69637300004A
:1047900010B50A46024903A000F0CDF8004810BD4C
:1047A000D406002053544D3332205669727475611B
:1047B0006C20436F6D506F727400000010B51A20AA
:1047C00008800A480168001D0468001D0068081878
:1047D00009D008220649FEF74FFD05490422103191
:1047E0002046FEF749FD0248801E10BD107AFF1FCB
:1047F00036000020F8B504460020ADF800004888D7
:104800000D46010A08295FD2DFE801F05E040917AE
:104810005E5E3C45D4F8B412207C0A6819E0207C26
:1048200002260028D4F8B80205D0C16A6846884735
:104830000146467039E0816AF8E7C0B2062843D2E3
:10484000DFE800F0030A1014181CD4F8B402426820
:1048500005E0694690471CE0D4F8B402826892B340
:10486000207CF6E7D4F8B402C268F8E7D4F8B402C2
:104870000269F4E7D4F8B4024269F0E7D4F8B4026C
:104880008269ECE7207CF0B9D4F8B802416B684645
:104890008847014609E0207CA8B9D4F8B802016B2A
:1048A00068468847014607204870EA888AB1BDF803
:1048B000000040B1824200D90246ADF800202046F7
:1048C000FFF70BFFF8BDFFE729462046FFF7DEFEA6
:1048D000F8E72046FFF70FFFF4E778B50E46428869
:1048E0000178002504468A4212D9ADF800100AE08A
:1048F000694600F019F84178052904D18178054608
:10490000B14205D000256188BDF800209142EFD862
:10491000284678BD0146002002E0401CC0B2491C78
:104920000A78002AF9D170470A8803781A440A8065
:1049300001780844704770B516460D46002820D00F
:104940000446FFF7E7FF022101EB40014FF400703E
:10495000814204D82046FFF7DDFF4000801C3080F4
:1049600030782870032068700220002206E0295465
:10497000401CC0B22A54401CC0B2641C21780029DB
:10498000F5D170BD01004FF0000004D0012901D025
:10499000022901D0032070470120704778B100231D
:1049A000C0F8B832C0F8C432C0F8D03209B1C0F88B
:1049B000B412012180F89C12027000F0CFB80320DD
:1049C000704710B5D0F8C802FCF798FFBDE810405A
:1049D000FFF7D8BF10B5D0F8C802FCF76AFFBDE8F2
:1049E0001040FFF7CFBF70B50446002521B194F801
:1049F0009C02032846D050E0D4F8941204F114002D
:104A0000022939D1818942688A420AD9511A416002
:104A1000828901691144016142682046FFF72EFE38
:104A20000FE0914214D10068884211D3D4F8981253
:104A300088420DD2002211462046FFF71FFEC4F81F
:104A4000985200231A461946204600F0FAF813E05F
:104A500094F89C02032808D1D4F8B802C16821B1A7
:104A6000C4F8D452C168204688478021204600F00F
:104A700073F92046FFF726FE94F8A00268B184F887
:104A8000A0520AE0D4F8B802426932B1C4F8D45254
:104A9000426920469047002800D1002070BD10B523
:104AA0000446002221B194F89C02032834D03EE051
:104AB000D4F8941204F5AA70032938D18189436887
:104AC0008B420ED9591A41608289016911440161F2
:104AD00042688089824200D802462046FFF7C6FD20
:104AE00025E094F8AA0210F01F0003D0012802D09C
:104AF000022800D0002294F89C02032808D1D4F8A0
:104B0000B802016921B1C4F8D4220169204688475E
:104B10002046FFF7F0FD0AE0D4F8B802836933B10C
:104B2000C4F8D422826920469047002800D1002092
:104B300010BD0020704710B50024012180F89C12A0
:104B4000D0F8B82222B152680179904700B103240D
:104B5000204610BDD0F8C802FCF7FDBE10B50178A4
:104B600039BB15490222C1F8E004C0F8C8124FF061
:104B7000A040086004200871CA71002088714A7240
:104B80008872C87208738873C8730846FDF742FAC2
:104B900008B1FBF748FE80210748FCF73AFE4022A7
:104BA00000210548FCF739FE802201210248FCF76C
:104BB00034FE002010BD0000F41A00200A0601F0A7
:104BC0007F01D0F8C80201EBC10100EB810001D5E3
:104BD000807D704790F85602704710B5D0F8D42207
:104BE00000EB8202D2F8B82222B190F89C32032B5B
:104BF00002D004E0032010BD126A02B190470020E9
:104C000010BD10B5D0F8D42200EB8202D2F8B82241
:104C100022B190F89C32032B02D004E0032010BD97
:104C2000526A02B19047002010BD10B51C461346D1
:104C3000D0F8C8022246FCF797FEBDE81040FFF707
:104C4000A1BE10B5D0F8C802FCF7BFFEBDE8104009
:104C5000FFF798BE2DE9F04100260125044680F8B3
:104C60009C52C4F894626660C4F8A46280F8A062A2
:104C7000D0F8B80230B1426822B1002120469047F6
:104C800000B103260022402311462046FFF7CDFF46
:104C9000402784F86351A4F860713B4600228021CC
:104CA0002046FFF7C2FF84F8235027843046BDE832
:104CB000F08190F89C12042903D190F89D1280F89D
:104CC0009C120020704710B590F89C12032905D162
:104CD000D0F8B81211B1C96901B18847002010BDE0
:104CE00001740020704710B5D0F8C802FDF758FADB
:104CF000BDE81040FFF746BE70B5044600F2AA209A
:104D0000054600F051F80120C4F89402B4F8B0024E
:104D1000C4F8980294F8AA0210F01F010AD00129E1
:104D20000ED0022912D000F080012046BDE870406C
:104D300000F012B829462046BDE8704000F0D0B817
:104D400029462046BDE8704000F013BA29462046A7
:104D5000BDE8704000F05AB910B5D0F8C802FCF7B1
:104D600050FEBDE81040FFF70DBE10B5D0F8C802E8
:104D7000FDF730FABDE81040FFF704BE90F89C1232
:104D8000042903D090F89C1280F89D12042180F829
:104D90009C120020704710B5D0F8C802FCF76AFEDC
:104DA000BDE81040FFF7EEBD70B5054611F8010BE8
:104DB0002870087868704C1C2046FEF744FF688015
:104DC000A41C2046FEF73FFFA880A01CFEF73BFF77
:104DD000E88070BD38B504460020ADF80000A1B1F0
:104DE000C4F8B812D4F8D40204EB8000D0F8B802AA
:104DF000C16A19B168468847C4F8D002D4F8D8020D
:104E0000401CC4F8D802002038BD032038BD02463B
:104E10000020D2F8B832002B02D01B681046184789
:104E2000704700002DE9F04188462B4E8978002517
:104E300004463170012906D941462046FFF726FC79
:104E40000320BDE8F08194F89C02022702280CD0D0
:104E500003281DD041462046FFF718FC3178204634
:104E6000FFF7F6FB03252846EBE789B32046616090
:104E7000FFF7CDFF050004D041462046FFF706FCB2
:104E80001DE02046FFF737FC032084F89C02EAE788
:104E9000C1B1606888421BD0C1B22046FFF7D8FB81
:104EA000317820466160FFF7B2FF050010D041461F
:104EB0002046FFF7EBFB21792046FFF7C9FB84F87A
:104EC0009C72D0E784F89C7220466160FFF7C0FBBB
:104ED0002046FFF710FCC6E7C0000020FFF745BFE3
:104EE0002DE9F0410A78002512F060020CD0202A4A
:104EF00001D0402A7DD1D0F8D42200EB8202D2F832
:104F0000B8229268904731E04B78002201260A2BA4
:104F10006FD2DFE803F041666E586E08056E2D29EA
:104F2000FFF768FC67E004468888D8B9C888C8B924
:104F30004888802816D200F07F0794F89C02032846
:104F400010D084F89E7239462046FFF7CCFE2046EA
:104F5000FFF7D1FB1FB1022084F89C024BE084F8DC
:104F60009C6248E0204644E0FFF75CFF054642E0D3
:104F7000CB88012B3DD190F89C32012B04D0022B21
:104F800002D0032B35D104E08260012200F1080138
:104F900016E00122011D13E090F89C22012A03D0A3
:104FA000022A01D0032A24D1CA88022A21D1C6604C
:104FB000D0F8A41209B10321C160022200F10C0152
:104FC000FFF78BFB17E04A88012A02D0022A03D0A0
:104FD0000FE0C0F8A46216E08988090A80F8A012E0
:104FE00011E090F89C32012B08D0022B06D0032B45
:104FF00004D0FFF74BFB2846BDE8F0814988012922
:10500000F9D1C0F8A422FFF776FBF4E72DE9F041CF
:10501000054608780C790E464FF0000810F0600045
:105020000BD0202801D040286BD121462846FFF71D
:1050300019FBFF2800D0D8B398E07078C8B30128D6
:1050400024D003285DD195F89C02022802D00328C1
:1050500057D10CE0002C54D0802C52D02146284649
:10506000FFF77AFE80212846FFF776FE7EE0708803
:1050700040B93CB1802C05D0C88818B921462846D3
:10508000FFF76AFE2846FFF736FB6FE095F89C02B3
:105090000228DFD0032866D1708888BB600603D061
:1050A00021462846FFF78DFC2846FFF724FBBCE786
:1050B00000E00AE0C5F8D402D5F8B8028268FAB177
:1050C000314628469047804650E095F89C020027DC
:1050D000022802D0032846D114E00CB1802C42D122
:1050E000200604F07F0000EB800005EB800101D575
:1050F000143101E001F5AA71022201F80E7F2EE0C1
:1051000034E030E0200604F00F0000EB800005EBF7
:1051100080000AD590F8230028B304F07F0000EB4C
:10512000800005EB800614360AE090F86301D0B1E8
:1051300004F07F0000EB800005EB800606F5AA7600
:105140004CB1802C07D021462846FFF737FD10B11F
:105150000120B07300E0B773022206F10E01284669
:10516000FFF7BBFA02E02846FFF790FA4046BDE899
:10517000F08170B50546087800240E4610F06000F6
:1051800003D0202801D0402827D195F89C0201287F
:1051900003D0022801D003281FD1B088C1B2012951
:1051A0001AD8C1B22846FFF75FFAFF280CD058B9C9
:1051B000D5F8B8128A683AB1C5F8D4028A6831467F
:1051C00028469047044600E00324F088204307D196
:1051D0002846FFF790FA03E031462846FFF756FAD3
:1051E000204670BD7047000000487047D41800206A
:1051F00070B50A78012302F00F054E78AB401B4CC6
:10520000D0F81C58012E17D045EA0343C0F81C38CB
:1052100000EB4210D0F8002B12040BD4D0F8002B76
:105220000B890979C3F30A031A4344EA81410A430B
:10523000C0F8002B002070BD9BB21D43C0F81C5865
:1052400000EB4210D0F800391B04F3D4D0F8003939
:105250000D890979C5F30A0589042B4341EA825176
:105260000B432343C0F80039E4E70000008000103E
:10527000D0F800196FF30A01C0F80019D0F804182B
:1052800041F48071C0F804180020704770B50D46D5
:105290000446C2F3072104981E4601291BD0E0688A
:1052A00040F04000E060204600F032F8C6F30721ED
:1052B0000029A16B26D021F48031A163C5F30741F9
:1052C000012907D1A16841F00601A160A16841F060
:1052D0002001A16070BDA16B21F48031A163E16860
:1052E0000A4A1140E160E16821F44011E160C0B276
:1052F000012803D1E06840F48010E060204600F00F
:1053000007F8DBE741F48031D7E70000BFFFBDFFBE
:1053100008B5002100914FF07061009A521C009274
:105320008A4210D80269002AF7DA0A220092521E35
:105330000092FCD1026942F001020261009A521C03
:1053400000928A4201D9032008BD0269D207F5D133
:10535000002008BD30B54C780A78012300EB4212DA
:10536000012C2CD0D2F8004B002C0BDAD2F8004BD9
:1053700044F00064C2F8004BD2F8004B44F0804483
:10538000C2F8004BD0F83C580C7804F00F0403FA34
:1053900004F425EA0444C0F83C48D0F81C480978D5
:1053A00001F00F018B4024EA0341C0F81C18D2F829
:1053B000000B19490840C2F8000B002030BDD2F89C
:1053C0000049002C0BDAD2F8004944F00064C2F81E
:1053D0000049D2F8004944F08044C2F80049D0F8AE
:1053E0003C480D7805F00F0503FA05F5ADB2AC4366
:1053F000C0F83C48D0F81C48097801F00F018B40F8
:1054000099B28C43C0F81C48D2F8000903490840FF
:10541000C2F80009D1E700000078F3EF007833EC20
:10542000D0F8001E21F00301C0F8001ED0F80418C7
:1054300021F00201C0F8041800207047D0F8001EC7
:1054400021F00301C0F8001ED0F8041841F0020159
:10545000C0F80418002070472DE9F04F00250E46D3
:10546000044617462846294604EB8002C2F8041178
:10547000401C0F28F8D3C3F307405FEA0009204619
:1054800016D0806B20F40012A263A06B40F40022BF
:10549000A263084688462146C4F8000EC7F30720D9
:1054A000012817D00846D1F8001841F0030118E090
:1054B000D0F8040840F00202C4F80428A06B40F4BD
:1054C0000012A263A06B20F40022A263A06B20F460
:1054D0008022DDE7300E0846D1F8001801D041F0F7
:1054E0000101C0F80018102100F08BFA00B101256D
:1054F000204600F06AFA00B101254046C4F8108841
:10550000C4F81488C4F81C8800214FF0006B4FF0D9
:10551000904E4FF67F3AF2B215E000BF04EB411314
:10552000D3F800C9BCF1000F06DA11B1C3F800E9E5
:1055300004E0C4F800B901E0C3F80009C3F8100999
:10554000C3F808A9491C8A42E8D8002115E000BF29
:1055500004EB4113D3F800CBBCF1000F06DA11B114
:10556000C3F800EB04E0C4F800BB01E0C3F8000B93
:10557000C3F8100BC3F808AB491C8A42E8D8D4F82A
:10558000101821F48072C4F81028A0616FF08040D8
:105590006061C6F3074018B9A06940F01000A0612F
:1055A000A0690A490843A061C7F3074018B1A06980
:1055B00040F00800A061B9F1010F03D1A0690449CE
:1055C0000843A0612846BDE8F08F000000383C8009
:1055D00004000040816821F00101816000207047D3
:1055E00010B5036C134CA34203D9D0F8003B002B39
:1055F0001EDB0023C0F8103BD0F8103B43F400231F
:10560000C0F8103BD0F8103B43F01803C0F8103B33
:10561000D0F8103B43F0C043C0F8103B012907D13C
:10562000C0F8142BD0F8001B41F08021C0F8001BFB
:10563000002010BD0A30544F4A780B78012A00EB45
:1056400043100BD0D0F8002B22F40012C0F8002B2E
:105650000979032914D0022912D017E0D0F80029C3
:1056600022F40012C0F800290979032901D0022987
:105670000CD1D0F8001941F08051C0F8001905E0B4
:10568000D0F8001B41F08051C0F8001B002070478B
:105690000A784B78D1B200EB4110012B12D0D0F830
:1056A000001B002906DB2AB1D0F8001B21F0804145
:1056B000C0F8001BD0F8001B41F40011C0F8001B1B
:1056C00000207047D0F80019002906DB2AB1D0F875
:1056D000001921F08041C0F80019D0F8001941F4F8
:1056E0000011C0F80019EBE7F8B50C784F788B4D36
:1056F000E3B26FF0604600EB4313012F29D0D3F8DB
:10570000107B6FF31207C3F8107BD3F8107B2F4088
:10571000C3F8107B002C7DD00D69002D7BD08C68E8
:1057200025446D1EB5FBF4F5ADB26C430C62D3F8A5
:10573000104B06EAC5452C43C3F8104BD3F8104B69
:105740000D6AC5F312052C43C3F8104B012A70D023
:10575000CBE00F69EFB1D3F810796FF31207C3F8FC
:105760001079D3F810792F40C3F810790CB30F6972
:105770008D682F447F1EB7FBF5F5D3F81079ADB2D5
:1057800006EAC5463743C3F810790E79012E1CD0BE
:105790002AE0D3F810692E40C3F81069D3F81059E5
:1057A00045F40025C3F81059D3F810596FF31205CA
:1057B00020E00E698D68AE4200D90D61D0F8105915
:1057C00045F40026C0F810690EE0D3F8106926F001
:1057D000C046C3F81069D3F810694FF0C04707EA14
:1057E00045752E43C3F81069D3F810590E69C6F3F6
:1057F00012063543C3F81059012A1BD000EB44139D
:10580000D3F8004944F00444C3F800490C79012C52
:1058100031D001E044E057E00A695AB3D0F83428A7
:10582000097801F00F03012199400A43C0F8342898
:1058300071E056E0CA691AB100EB4413C3F81429A9
:10584000097901290ED1D0F80818C90500EB4411D7
:10585000D1F8002902D442F0005201E042F0805217
:10586000C1F8002900EB4410D0F8001941F00441C0
:10587000C0F800194FE0D0F80848E405D3F8004913
:1058800002D444F0005401E044F08054C3F80049CD
:1058900000920A8A93B20A78C96800F0DFF93AE008
:1058A0000C690CB18C680C618C680C62D0F8105BD0
:1058B000C4F312042543C0F8105BD0F8104B44F435
:1058C0000024C0F8104B41E7D3F8104B8D68C5F3A6
:1058D00012052C43C3F8104BD3F8104B44F40024AA
:1058E00032E7CA680AB1C3F8142B097901290CD12F
:1058F000D0F80808C005D3F8000B02D440F00050DF
:1059000001E040F08050C3F8000BD3F8000B40F0EA
:105910000440C3F8000B0020F8BD0000FFFF07E0C3
:1059200038B50022009213464D780A7842F210747E
:1059300000EB4212012D19D0D2F8005B002D3CDAA9
:10594000D2F8005B45F00065C2F8005B0A7800EB16
:105950004212D2F8005B45F08045C2F8005B009A25
:10596000521C0092A24221D9012326E0D2F800590C
:10597000002D22DAD2F8005945F00065C2F800592E
:105980000A7800EB4212D2F8005945F08045C2F87F
:105990000059009A521C0092A242E5D80A7800EB06
:1059A0004212D2F80029002AF3DB06E00A7800EB65
:1059B0004212D2F8002B002AD1DB184638BD81688C
:1059C00041F0010181600020704708B500214FF0CF
:1059D00070620091009B5B1C009393420AD803699C
:1059E000002BF7DA0091102101610099491C009108
:1059F000914201D9032008BD0169C906F5D40020F0
:105A000008BD18B500224FF070630092009C641C22
:105A100000949C420CD80469002CF7DA00922022F2
:105A200042EA811101610099491C0091994201D912
:105A3000032018BD01698906F5D4002018BDD0F8EF
:105A4000080810F0060004D0022803D0062801D070
:105A50000F20704702207047406900F00100704736
:105A6000D0F81818D0F81C08084080B27047D0F859
:105A70001818D0F81C080840000C704710B5D0F872
:105A80001038D0F8342801F00F0400EB4110E24048
:105A900002F00102D0F8080943EAC212104010BD1A
:105AA00000EB4111D1F8081BD0F8140808407047EA
:105AB000416980690840704730B50346084694083C
:105AC00002F00301002203F5805303E01D6840F853
:105AD000045B521CA242F9D300290BD01C6800229F
