:020000040800F2
:1000000008270020D5020008374800084B430008A5
:1000100035480008211F0008056B0008000000009B
:10002000000000000000000000000000354C000847
:100030006D20000800000000B3490008414C000892
:10004000EF020008EF020008EF020008EF020008CC
:10005000EF020008EF020008EF020008EF020008BC
:10006000EF020008EF020008EF020008EF020008AC
:10007000EF020008EF020008EF020008EF0200089C
:10008000EF020008EF020008EF020008EF0200088C
:10009000EF020008EF020008EF020008EF0200087C
:1000A000EF020008E94C0008EF020008EF02000828
:1000B000EF020008EF020008EF020008EF0200085C
:1000C000EF020008EF020008EF020008EF0200084C
:1000D000EF020008EF020008EF020008EF0200083C
:1000E000EF020008EF020008EF020008EF0200082C
:1000F000EF020008EF020008EF020008EF0200081C
:10010000EF020008EF020008EF020008EF0200080B
:10011000EF020008EF020008EF020008EF020008FB
:10012000A51F0008EF020008B11F0008BD1F00084E
:10013000EF0200080000000000000000EF020008CD
:10014000EF020008EF020008EF020008394800083B
:10015000EF020008EF020008EF020008EF020008BB
:10016000EF020008EF020008EF020008EF020008AB
:10017000EF020008EF02000800000000000000008D
:10018000EF020008EF02000800F002F800F092F819
:100190000AA090E8000C82448344AAF10107DA45E2
:1001A00001D100F087F8AFF2090EBAE80F0013F0A2
:1001B000010F18BFFB1A43F001031847F86C000049
:1001C000186D0000103A24BF78C878C1FAD85207D9
:1001D00024BF30C830C144BF04680C6070470000C1
:1001E0000023002400250026103A28BF78C1FBD840
:1001F000520728BF30C148BF0B6070476E2900F01E
:10020000E381702900F02D83662906F0C5856529F4
:1002100006F0C285672906F0BF85612906F0BE8514
:1002200003681B0A28BF41F08001692900F0908112
:10023000642900F08D81752900F08A816F2900F012
:10024000BA82782900F0F982E92900F05582E42980
:1002500000F05282F52900F04F82EF2900F0B782BA
:10026000F82900F0F8820368DB0928BF41F080011B
:10027000632900F0FB87732901F00080E32901F076
:100280000B80F32901F01080002070471FB506F0A5
:100290007EFD01F05BF804000020002106F0EAFC7E
:1002A000401C60600020002106F0CEFCE0601FBD15
:1002B00010B510BD01F01CF81146FFF7E7FF06F07E
:1002C0007FFC01F0F9F803B4FFF7F2FF03BC01F083
:1002D00041F900000948804709480047FEE7FEE76A
:1002E000FEE7FEE7FEE7FEE7FEE7FEE7FEE7FEE7E6
:1002F00004480549054A064B70470000D94C0008E0
:100300008901000808210020082700200823002078
:100310000823002053EA020C00F069802DE9F04B1D
:100320004FF00006002B1FBFB3FA83F503FA05F464
:1003300024FA05F65E4012BF1643B2FA82F502FABD
:1003400005F4C5F120051EBF22FA05FC44EA0C04A1
:10035000203556EA044C4FEA144418BF641C4FF091
:1003600000084FF00009904271EB030C39D30029CB
:1003700019BFB1FA81F701FA07F6B0FA80F700FA6F
:1003800007F6C7F120071EBF20FA07FC46EA0C0655
:100390002037B6FBF4FCA7EB0507103F07F01F0B57
:1003A000CBF120060CFA0BFB2CFA06F644BFB34641
:1003B0000026202FA4BF5E464FF0000B5BEA060C20
:1003C00008BF4FF0010B19EB0B09ABFB027C48EBAC
:1003D0000608C01B06FB02CC0BFB03CC71EB0C0127
:1003E000C1E70B46024641464846BDE8F08B13B5CF
:1003F0004FF000004FF00001AFF30080BDE81C405B
:10040000704700007CB51D4616460C00009001D0D8
:100410002044401E074B7B442A46694601903046E3
:1004200000F0EBF805461CB10020694600F0F8F832
:1004300028467CBD110200004FF0000200B51346B3
:1004400094469646203922BFA0E80C50A0E80C50F4
:10045000B1F12001BFF4F7AF090728BFA0E80C50A5
:1004600048BF0CC05DF804EB890028BF40F8042B9E
:1004700008BF704748BF20F8022B11F0804F18BF0B
:1004800000F8012B704770477047704770B50446FD
:1004900085690068C10601D5302600E02026C00726
:1004A00007D070BDD4E9012130469047206A401C36
:1004B00020626D1EF6D570BD70B504468569007862
:1004C000C00707D170BDD4E9012120209047206AE0
:1004D000401C20626D1EF6D570BD09684A0501D525
:1004E00040B27047C905FCD500B2704709684A059B
:1004F00001D5C0B27047C905FCD580B2704770B550
:100500000C460546012A05D02878800600D5EA6900
:10051000002302E0012305E05B1C934202D2E05C71
:100520000028F9D1A869E618C01AA861286A1844F9
:1005300028622846FFF7AAFF04E0D5E9012114F854
:10054000010B9047B442F8D32846FFF7B5FF70BDC2
:100550002DE9F0410646002410687529314616A59C
:1005600010D0FFF7BAFF002802DA404213A507E0D7
:1005700031688A0701D512A502E0490704D511A503
:10058000012401E0FFF7B2FF00210A2206F124074F
:1005900009E0B0FBF2FCB0FBF2F302FB1C003030D0
:1005A00078541846491C0028F3D123462A46304681
:1005B000BDE8F04100F069BA000000002D00000025
:1005C0002B0000002000000011680268006A53053B
:1005D00001D508700AE0D30501D5088006E01306AE
:1005E00003D5C217C1E9000200E00860012070478E
:1005F00001694A1C02610878704700B58FB0CDE9E7
:1006000001310021059105497944CDE903101146D6
:10061000684600F031F90FB000BD0000E5FFFFFFB4
:100620000A6802F8010B0A607047D1E900239A4278
:1006300002D2531C0B601070704700002DE9FF5F61
:1006400015468A460446DFF8AC80F8440027D8E90E
:1006500000103E46CDE9001010E03AF816106A4648
:1006600002A800F025FE411C07D02178890603D599
:10067000E269391891420DD80744761C207880062B
:1006800002D5E069B84205DDAE42E6DB3AF8160075
:100690000028E2D1A069C01BA0612046FFF7F6FE4A
:1006A000D8E90010CDE90010002017E03AF8181042
:1006B0006A4602A800F0FCFDB0F1FF3F81460BD076
:1006C00000250DF1080B05E0D4E901211BF8050018
:1006D00090476D1C4D45F7D308F10100B0428046AC
:1006E000E4DB206A384420622046FFF7E5FEBDE8DF
:1006F000FF9F00006A6700002DE9F0418046D21D8F
:1007000022F007020025D2E90002F52915A614D02F
:10071000011E72F1000106DA0023D0EB030063EB47
:10072000020211A608E0D8F800108B0701D50FA629
:1007300002E0490701D50EA601251146002408F163
:10074000240704E000F05CF930323A55641C50EAAA
:100750000102F7D12B46324621464046BDE8F04122
:1007600000F093B9000000002D0000002B000000F5
:100770002000000030B4002100F1240408E002F061
:100780000705D208303542EA4372DB086554491C3C
:1007900052EA0305F3D10468002310A2250707D508
:1007A000A40600D421B1C46901230DA2641EC46152
:1007B00030BC00F06AB910B5044621461068FFF756
:1007C00095FE02462046BDE810400023D2E7D21D28
:1007D00022F00701D1E90023CCE70000000000006F
:1007E00030000000F0B40D460188090502D5214C07
:1007F0007C4402E01F4C7C440E34002100F12406AE
:1008000008E002F00F071209E75D42EA03721B09D4
:100810007754491C52EA0307F3D1027800231207E8
:1008200004D5702D06D009B1022311342246F0BC44
:1008300000F02BB901231034F8E770B504460D46DB
:1008400021461068FFF752FE024629462046BDE8C1
:1008500070400023C6E7D21D22F00703D3E900232E
:10086000C0E70368126843F0200303600823C361F4
:100870000023B7E7CC6500002DE9F05F8946044608
:100880004FF0000ADFF874B1FB44C0F820A0204606
:10089000E1688847002874D0252806D0D4E90121D2
:1008A0009047206A401C2062F1E700265F46204600
:1008B000E16888472028054607DB312D05D27819E5
:1008C00010F8200C08B10643F1E7B00701D526F077
:1008D0000406C4F81CA00027C4F818A02A2D09D0CB
:1008E000284606F065F938B304EB8708303DC8F8B0
:1008F000185019E059F8041B204604EB8702916157
:10090000E1688847012F054618D1E069002820DA00
:1009100026F020061DE0D8F8180000EB800005EB5B
:1009200040003038C8F818002046E168884705467E
:1009300006F03EF90028EED1012F0AD02E2D08D165
:100940002046E16888477F1C0546022F46F02006B6
:10095000C4DBA069002803DA404246F00106A0612A
:10096000F00701D026F010066C2D0BD0682D09D0B1
:100970004C2D39D06A2D35D0742D35D07A2D33D009
:1009800016E038E0E1682F4620468847B842054621
:1009900009D16C2F26D04FF48060E16806432046D1
:1009A0008847054604E06C2F1AD04FF48070064348
:1009B0000DB3A5F14100192802D8203546F4006690
:1009C0004A462946204626604E46FFF717FC80B16E
:1009D00001280BD0F61D26F0070000F1080956E7A4
:1009E0004020E4E78020D8E70020D6E706F104099C
:1009F0004DE7284652E7206ABDE8F09F5C6500009D
:100A000030B5B0F10A024FEA900E71F100034EEAE0
:100A1000817EB0EB0E0061EB91014FEA101E4EEAB1
:100A2000017E10EB0E0041EB11114FEA102E4EEA41
:100A3000016E10EB0E0041EB11214FEA104E4EEA11
:100A4000014E10EB0E0041EB1141401841F1000145
:100A50004FEAD00040EA41704FEAD10110EB800527
:100A60004FEA810444EA907444EB01046D1944EBAD
:100A70000404521BA3414FF0000348BF0A3200D5C3
:100A800030BD401C41F1000130BD2DE9F0470D465D
:100A900099469246044600F124080168880604D568
:100AA000E06921F01001216000E00120A84201DD91
:100AB000471B00E00027A1697A1902EB0900081A18
:100AC000A0612078C00602D42046FFF7DFFC002694
:100AD00008E0D4E901211AF806009047206A401C7A
:100AE000761C20624E45F4DB2078C0060AD52046ED
:100AF000FFF7CCFC06E0D4E9012130209047206AC2
:100B0000401C2062381EA7F10107F4DC07E0D4E99D
:100B1000012118F805009047206A401C2062281E19
:100B2000A5F10105F3DC2046FFF7C6FC207800069E
:100B300002D50220BDE8F0870120FBE770472DE9D0
:100B4000FF4F0C461E464FF0FF378BB0D2E9000135
:100B5000DDF860800A908A46C1F30A5505B93D4622
:100B6000002108464FF00000BAF1000F00F44000E9
:100B700005DA00EB80004FF4400101EA50004FEA33
:100B80009059B9F1010F00DDB9460A9850EA4A00C0
:100B90000ED044F61050A5F2FF3545432F14B8F19E
:100BA000000F1ED07542291E1EDDC9F100021CE097
:100BB000B8F1010F4FF0000001D0302103E0F24303
:100BC00005E02154401CB042FBDB304600220021EE
:100BD00021540B99C1F80880C1E900200FB0BDE88D
:100BE000F08FBD1B6D1CDEE74A4600DA694206A89D
:100BF00000F0F0FB06AB93E8070003AB83E80700C7
:100C000050460A9900F0ADFC8DE80700A0F50050B1
:100C10001F3800900398002D0ADD42F21F014A465A
:100C20000844002303A90390684600F016FF09E07A
:100C3000A0F500504A461F38002303A903906846D8
:100C400000F020FF8DE807000004000C03D04FF0F7
:100C5000FF30410800E01046B8F1000F03D0002239
:100C6000009215461EE0751E05D4FFF7C9FE30320E
:100C700062556D1EF9D5B3460122084302D0002209
:100C80007F1C04E02078302801D100227F1E002A3A
:100C9000099784D01DE0112D07DAFFF7B1FE30323D
:100CA00062556D1C50EA0102F5D1084302D000984C
:100CB000C8B10EE00021681E05E0235C625C63544D
:100CC0002254401E491C8142F7DBAB46A81B401E44
:100CD0000990002004F80B000B98099AC0F80880CE
:100CE000C0E9002B7AE711264FF0000857E72DE9FD
:100CF000F04F88460446D21D22F0070191B0D1E999
:100D00000001CDE90A0105F02BFF02460B98C00F48
:100D100001D02D2007E02068810701D52B2002E0BB
:100D2000202101EAC000032A099001D0072A05DB2F
:100D300003464146204600F00DFB0BE1207880067B
:100D400001D5E06900E00620B8F1650F814606D0C4
:100D5000B8F1660F18D0B8F1670F70D131E00020FC
:100D6000B9F1110F009001DB112301E009F101033A
:100D70000AAA01A90CA8FFF7E2FEDDE90C70002623
:100D800009F10105834647E001204B4600904FF0F2
:100D900000470AAA01A90CA8FFF7D1FEDDE90DB0B2
:100DA0000C995D46002610B909F101000D18B9EB48
:100DB000050003D4C0F1FF3609F10105A5EB0900D8
:100DC0002BE0B9F1010F01DA4FF001090020B9F170
:100DD000110F0090484601DD112300E003460AAAE6
:100DE00001A90CA8FFF7ABFEDDE90C704D4600260B
:100DF0008346207800070AD4AB4500DA5D4601A897
:100E0000012D04DD411911F8011C302907D04F458F
:100E100002DA17F1040F04DA012082460FE06D1E9A
:100E2000EEE7002F02DCED1B3E4403E0781CA842F5
:100E300000DD7D1CB81B00F1010A4FF0004720784F
:100E4000000703D4AA4501DB4FF0FF3A0021B7F1B8
:100E5000004F0DF143088DF8431024D002202B23BE
:100E6000002F01DA7F422D230A21021EA0F101008A
:100E700000DC5FB197FBF1FC97FBF1F201FB1C7CFE
:100E800017460CF1300C08F801CDEEE7A8F101008F
:100E900003702188090501D5452100E06521A0F1F5
:100EA000010800F8011C09980FA9A1EB0807FF1D14
:100EB00000B10120411901EBEA70A1693844081A18
:100EC000401EA0612078C00602D42046FFF7DEFA5B
:100ED000099828B1D4E901219047206A401C20627A
:100EE0002078C00622D52046FFF7D0FA1EE0002E5B
:100EF00004DBB34502DD01A8805D00E03020D4E9C9
:100F000001219047206A401C2062761CAAF1010052
:100F10005FEA000A0AD100F019FAC0680168405C73
:100F2000D4E901219047206A401C2062281EA5F1C7
:100F30000105DCDC07E0D4E9012118F8010B90473A
:100F4000206A401C2062381EA7F10107F3DC20460E
:100F5000FFF7B2FA032011B041E600002DE9F04F8F
:100F600004460D46D21D22F0070089B0D0E9009753
:100F70004846394605F0F4FD0246F80F01D02D230E
:100F800007E02068810701D52B2302E0202101EA38
:100F9000C0038DF820300BB1012000E00020032AAF
:100FA000824601D0072A04DB2946204600F0D2F908
:100FB0003FE12078800601D40D2500E0E569C7F304
:100FC0000A560D2D49DA00214FEA175B08464FF00B
:100FD0000000002F00F4400007DA00EB80004FF41F
:100FE000400100EBD07001EA60008115012901DDAC
:100FF0004FF0FF3100224FEA850CBCF1180F06D3E9
:101000001346ACF118004FF08052C24003E04FF499
:10101000801323FA0CF30CF10C0CBCF1200F04D359
:10102000ACF1200C09FA0CF001E007FA0CF00029F1
:101030004FF0004801DD18B90FE00ED140450CD348
:1010400019EB02095F4121B9404502D19F4329EACA
:101050000209BBEB175F00D0761C2088000502D583
:101060007B48784402E07A487844193808AA30234B
:1010700002F80A30037C0AF10101002E0AF1020A8B
:1010800053546A4602DC4FF0300101E04FF0310169
:101090004FF001088DF8001002D0A6F2FF3603E0F1
:1010A00059EA470100D06B4E002D02DC2178090778
:1010B00004D54FF002082E218DF80110C4460021FE
:1010C0000BE0C7F303433F01C35C491C6D1E02F8EC
:1010D0000830052908F1010801DA002DF1DC0021B2
:1010E0000CE000EB1973491C1B786D1E082902F8EF
:1010F00008304FEA091908F1010801DA002DF0DC87
:1011000021688B0602D516E0A8F10108E04505DD4F
:1011100002EB080313F8013C302BF5D0B8F1000FB7
:1011200009DD02EB080313F8013C2E2B03D109075C
:1011300001D4A8F10108002D05DD3E2102F80810B8
:101140006D1E08F10108407C002E02F8080008F12D
:10115000010804DA2D20764202F8080002E02B2074
:1011600002F808000A214FF47A70864208F101085B
:101170000BDB96FBF0F3303302F8083096FBF0F30C
:1011800008F1010800FB136601E0642E0CDB64200B
:1011900096FBF0F3303302F8083096FBF0F308F1D9
:1011A000010800FB136601E00A2E06DB96FBF1F056
:1011B000303002F8080008F1010896FBF1F001FB5D
:1011C0001060303002F80800A16908F1010808EB4E
:1011D000050202EB0A00081AA0612078C00602D4BA
:1011E0002046FFF753F9216A08AE01EB0A0020629E
:1011F00004E0D4E9012116F8010B9047BAF1010A85
:10120000F7D22078C00602D52046FFF73FF96E4698
:1012100009E016F8010B3E280FD0D4E901219047D0
:10122000206A401C2062B8F10108F2D22046FFF784
:1012300043F909B00320BDE8F08F206A28442062FA
:1012400003E0D4E90121302090476D1EEBD3F8E78D
:10125000A65D000002FCFFFF10B5436913B1AFF3B8
:10126000008001E0FFF74BF9012010BD127800F17A
:1012700024010A7000224A700122EDE711684FF044
:10128000FF32E9E710B5436913B1AFF3008001E025
:10129000FFF7D4F9012010BD128800F124018284E7
:1012A0000022C2840122EDE711684FF0FF32E9E726
:1012B00070B516460C46054600F040F8036893F8F2
:1012C0000101012806D0FF2C0FD8185D68B101205C
:1012D0002C7070BDD3F807013246214603F2071384
:1012E00003442846BDE8704018474FF0FF3070BDFA
:1012F000754600F0EBF8AE4605006946534620F00F
:101300000700854618B020B5FEF7F2FFBDE8204083
:101310004FF000064FF000074FF000084FF0000BB1
:1013200021F00701AC46ACE8C009ACE8C009ACE864
:10133000C009ACE8C0098D467047000010B500F048
:1013400005F8001D10BD00BF2D5900000048704772
:10135000C82000202DE9F0411F46044603260168FD
:10136000072A01F4006004DB08B116A505E016A504
:1013700003E008B115A500E015A521F010002060DC
:10138000A069C01EA0610FB1401EA0612046FFF7FA
:101390007DF84FB1D4E9012138469047206A401CBE
:1013A0002062C01C206206E0206AFAE7D4E901212D
:1013B00015F8010B9047761EF8D22046FFF77CF80F
:1013C000BDE8F0814E414E006E616E00494E460010
:1013D000696E66002DE9F047814616468AB03548A9
:1013E00078440DC88DE80D0032487844801C03AC69
:1013F0000DC884E80D0041F69B300844372190FB6E
:10140000F1F290FBF1F5A5F1800501FB12041B3C04
:1014100002D56442012000E00020DFF898A0804659
:101420000027FA44AAF1BE0A0EE0E0070AD03246CD
:10143000684607EB470101230AEB810100F022FB1C
:101440008DE8070064107F1C002CEED1194F7F44FB
:10145000AE3F19E0E80715D007EB04100DF1180AAC
:1014600090E80E008AE80E00C068F04201D1981999
:1014700008903246012306A903A800F003FB03AB42
:1014800083E807006D10641C002DE3D14FF00103C9
:1014900032466946B8F1000F03A802D000F0DDFA29
:1014A00001E000F0EFFAC9E90001C9F808200AB02C
:1014B000BDE8F087B85A000010B50446AFF30080CD
:1014C0002046BDE81040FEF7FEBE00000048704711
:1014D000A82000204FF0013C50F8042B51F8043BA9
:1014E0009A4221D1A2EB0C03934313EACC1317D1F8
:1014F00050F8042B51F8043B9A4215D1A2EB0C038F
:10150000934313EACC130BD150F8042B51F8043B4E
:101510009A4209D1A2EB0C03934313EACC13DBD01C
:101520004FF00000704700BFD01A01BAB1FA81F144
:1015300001F0180122FA01F0CB40C1F12001DBB229
:10154000C0B2C01A2CFA01F3D11A914311EAC311A7
:10155000E6D1704701491820ABBEFEE72600020025
:1015600070475FEA400C08BF91F0000F4FEA8C23F0
:101570004FEAC12243EA51514FEA1C5018BF00F50F
:10158000F0404FEA300018BF41F000415FEA6C5C68
:1015900000F02980BCF1FF3F08BF40F08040704759
:1015A000130C06BF12044FF0100C4FF0000C130E7A
:1015B00004BF12020CF1080C130F04BF12010CF14E
:1015C000040C930F04BF92000CF1020CD30F04BF64
:1015D00052000CF1010C11464FF00002A0F11F0067
:1015E000A0EB0C00704711F0004F08BF704731F0BE
:1015F00000413FF4D5AF0B0C06BF09044FF0100CAF
:101600004FF0000C0B0E04BF09020CF1080C0B0F7D
:1016100004BF09010CF1040C8B0F04BF89000CF10D
:10162000020CCB0F04BF49000CF1010CCCF12003DC
:10163000A0EB0C0022FA03F302FA0CF241EA0301D8
:1016400000F10100704720F07F4C80EA030023F096
:101650007F47ACEB070303F57C5300F0004003F138
:10166000FF032DE980494FEA154B09B44FEA1443B3
:1016700025EA0B4E24EA03480FF2042606EB132753
:1016800049083E785FEA320203FB0667C7F50007A8
:1016900007FB06F64FEA54374FEAD64606F1020634
:1016A00007FB066CCCF1005C4FEA1C472CEA074CA8
:1016B00007FB06F40CFB06F504EB15464FEA9616FD
:1016C00034BF00204FF000404FEAD13706FB07FC43
:1016D0004FEA1C4C0CFB0BF7D21B03FB0CF761EB26
:1016E00007010CFB0EF7B0EB074072EB17420CFB47
:1016F00008F734BFA2EB0742B2EB074261EB174198
:101700004FEA0C444FEA910706FB07FC4FEA1C4CDA
:101710000CFB0BF7B0EBC74072EB573203FB0CF737
:1017200034BFA2EBC742B2EBC74261EB57310CFBAF
:101730000EF7B0EBC70072EB57720CFB08F734BF23
:10174000A2EBC702B2EBC70261EB5771039F4FEAEE
:10175000816141EA921104EBCC044FEAD1374FEAA0
:10176000826206FB07FC42EA90124FEA80604FEA71
:101770001C4C0CFB0BF7D21B03FB0CF761EB0701B6
:101780000CFB0EF7B0EB074072EB17420CFB08F7AF
:1017900034BFA2EB0742B2EB074261EB17414FEABD
:1017A0008C554FEA910704EB9C2406FB07FC4FEA9B
:1017B0001C4C0CFB0BF7B0EBC74072EB573203FB32
:1017C0000CF734BFA2EBC742B2EBC74261EB573113
:1017D0000CFB0EF7B0EBC70072EB57720CFB08F76F
:1017E00034BFA2EBC702B2EBC70261EB577115EB36
:1017F0004C254FEA816141EA92114FEA82624FEA39
:10180000D13742EA901206FB07FC44F100044FEA8C
:1018100080604FEA1C4C0CFB0BF7D21B03FB0CF750
:1018200061EB07010CFB0EF7B0EB074072EB1742C0
:101830000CFB08F734BFA2EB0742B2EB074261EBA7
:10184000174115EB1C154FEA813141EA92414FEAED
:10185000823242EA90424FEA80304FEA0C7644F1FD
:10186000000448EA03434EEA0B484FF0000EB2EB87
:10187000080C71EB030724BF624639464EEB0E0E8F
:101880004FF0000B0018524149414BEB0B0BB2EBF0
:10189000080C71EB03077BF1000B24BF624639464D
:1018A0004EEB0E0E4FF0000B0018524149414BEB2E
:1018B0000B0BB2EB080C71EB03077BF1000B24BFA1
:1018C000624639464EEB0E0E51EA020718BF46F04B
:1018D000010616EB0E7655F1000254F1000103D516
:1018E000BDE88901BDE80088BDE88901BDE8004880
:1018F000B619524141EB0101A3F101037047808009
:101900007F7E7D7C7B7A7978777676757473727159
:1019100071706F6E6E6D6C6C6B6A6A696868676611
:1019200066656464636362616160605F5F5E5E5DA3
:101930005D5C5C5B5B5A5A59595858575756565517
:1019400055555454535352525251515050504F4F79
:101950004F4E4E4D4D4D4C4C4C4B4B4B4A4A4A49C9
:10196000494948484847474747464646454545440C
:101970004444444343434342424242414141002B99
:101980009C4630D477002BD01CB54FEA370703B400
:101990004FF010004FF01001BAF1000F06D0BCF16B
:1019A000000FDCBF40F0080040F008014FF00000DD
:1019B0000FBCBDE810400BF1010BBBF1010F08BFDC
:1019C0005FEA170722BF12F1010211F101014FF086
:1019D000004143F1000300F0004043EA000070477B
:1019E000F9D35708D0E746EA064613F1400F4FEA0D
:1019F00016461FDD13F1200FDFBF16430A460021F4
:101A000020335B42BED0C3F1200746EA064602FA05
:101A100007F74FEA164646EA0706C3F1200722FAFF
:101A200003F201FA07F721FA03F14FF0000342EA4B
:101A30000702A7E746EA020646EA06464FEA1646C6
:101A400046EA0106BCBF46EA0646360C4FF00003E4
:101A50004FF000024FF0000194E72DE9804C9A46C8
:101A6000934670B491E8380007C831EA400C48BF8B
:101A700034EA430C03D5FFF7E6FDFFF780FFF0BC27
:101A8000BDE8008C2DE9804C9A46934670B491E8ED
:101A9000380007C810F0804F08BF13F0804F03D103
:101AA00000F005F8FFF76BFFF0BCBDE8008C20F0FC
:101AB0007F4780EA030023F07F4C07EB0C03A3F57C
:101AC0007C5300F00040A3F1FE0392F0000F00F001
:101AD000B38095F0000F00F077802DE901494FEABF
:101AE00011404FEA144621EA004800FB06FC24EAB4
:101AF000064708FB06F607FB08F800FB07F718EB9C
:101B000006484CEB164C4FEA124B18EB07484FEACD
:101B100015464CEB174022EA0B4E0BFB06FC25EA60
:101B200006470EFB06F607FB0EFE0BFB07F71EEB48
:101B3000064E4CEB164C4FF000061EEB074E4CEBDE
:101B4000174B18EB0B0840F1000018EB0E0B58EB8D
:101B5000000840F100008F1A4FF000013CBFC9435C
:101B6000661B14BFB5EB040C00213CBFC943F61B38
:101B70004FEA17444EEA8E0E27EA04454FEA1C4707
:101B800004FB07622CEA074C05FB07F70CFB05F684
:101B900004FB0CFC16EB074642EB174216EB0C4617
:101BA00042EB1C421BEB060658EB0202414146EA9F
:101BB0009E0601D5BDE80189B619524141EB0101EC
:101BC000A3F10103BDE801894FEA14454FEA11472B
:101BD00024EA054621EA074C05FB07F406FB07F754
:101BE0000CFB06F105FB0CFC11EB074144EB174421
:101BF0004FEA124711EB0C4144EB1C4422EA074C1C
:101C000005FB07F206FB07F70CFB06F605FB0CFCD1
:101C100016EB074642EB174216EB0C4642EB1C450F
:101C20006A1854F1000148BF7047B619524141EBA0
:101C30000101A3F10103704795F0000F37D04FEA7F
:101C400011424FEA144721EA024624EA074C02FBFC
:101C500007F106FB07F70CFB06F402FB0CFC14EB88
:101C6000074441EB17414FEA154714EB0C4441EB95
:101C70001C4125EA074C02FB07F506FB07F70CFBA6
:101C800006F602FB0CFC16EB074645EB174516EB78
:101C90000C4645EB1C42121951F1000148BF704738
:101CA000B619524141EB0101A3F1010370474FEA1C
:101CB00014454FEA114724EA054621EA074C05FB83
:101CC00007F106FB07F70CFB06F24FF0000605FBD9
:101CD0000CFC12EB074241EB174112EB0C4251EBAB
:101CE0001C4148BF7047921841EB0101A3F1010369
:101CF00070470000464910B54A6822F440324A60F5
:101D00004A6843681A434A6001684A6822F480724C
:101D10004A6001684A68036942EA03224A6001682E
:101D20004A6822F040724A6001684A6883681A4330
:101D30004A6001688A6822F400628A6001688A68E1
:101D4000C3681A438A60816A6FF07062D142016889
:101D50008A6822F070628A6001688A680CD0836A9F
:101D60001A438A6001688A6822F040528A600168DA
:101D70008A68C36A1A4301E022F040528A6001680F
:101D80008A6822F002028A6001688A68037E42EA59
:101D900043028A6090F82010002901684A680FD039
:101DA00042F400624A6001684A6822F460424A6074
:101DB00001684A68174C436A04EB43331A4301E055
:101DC00022F400624A600168CA6A22F47002CA62A0
:101DD0000168CA6A838B104C04EB03531A43CA622E
:101DE00001688A6822F400728A6001688A6890F843
:101DF000303042EA43228A6001688A6822F48062B5
:101E00008A6001688A68406942EA8020886010BD63
:101E10000023014000E0FFFF0000F0FF012210213D
:101E2000014800F0ADBD000000000240014890ED07
:101E3000010A704798200020014800887047000080
:101E40009820002003480068016841F040010160CB
:101E500070470000B801002010B5FFF7DFFF1A48F7
:101E6000194B4FF0010241880078A3F1060341EAC3
:101E7000002081B215484C0402D50021017321E0F5
:101E8000C1F30D0100EE101ADFED110A0180B8EE6A
:101E9000400A0273B0EE001A20EE200ADFED0D0AB0
:101EA00020EE200A80ED010A00EE101AB8EE400A7A
:101EB00020EE010A9FED081A20EE010A20EE200A0A
:101EC00080ED020A1A7010BD0A010020982000203F
:101ED0000000B44300008038DB0F494010B50D4CC2
:101EE0002078002812D000202070024610210A48D5
:101EF00000F046FDA21D0223111F084801F07AFEE2
:101F000028B1FFF78BFF01202070002010BD0120B9
:101F100010BD00000401002000000240B8010020B4
:101F2000FEE70020704700207047000010B5002237
:101F30000449054803F02AFA0449034803F019FA52
:101F4000002010BD94100020B80300209408002049
:101F500010B50446088881B2204604F0E7FD21460A
:101F6000034803F006FA024803F0DCF9002010BD34
:101F7000B803002000207047094A10B5D2F8BC22EF
:101F8000D2F814220AB1012010BD0A4601460448C5
:101F900003F0FCF9BDE81040014803F071BA0000FD
:101FA000B8030020014800F06FBA0000580100207B
:101FB000014800F069BA000068020020014800F002
:101FC00063BA0000C802002001681823CAB2103AA0
:101FD000B2FBF3F2054B6FF30901032A9B5CC36567
:101FE00000D9091D8165084670470000A06D0008F2
:101FF00010B5014600208B698A6A4FF0C07453B156
:10200000B3F5005F15D072B1012A0CD0022A0AD0B4
:10201000032A09D104E01AB1012A06D0022A03D109
:10202000C96AC90100D5012010BDC96AA142FAD010
:1020300010BD002AF7D0012AF2D0022AF3D0032AD9
:10204000F3D010BD30B50468256825F480252560DF
:10205000046863608368402B036803D0996000685C
:10206000C26030BD9A600068C16030BD704772B612
:10207000FEE7000070B590F83C20694D012A19D0A8
:10208000012280F83C200A6807230468092A13D932
:10209000E6680A3A02EB420293409E43E6600A7801
:1020A0008B680A3A02EB420293400268D4682343E9
:1020B000D36010E0022070BD266902EB420293401B
:1020C0009E4326610A788B6802EB420293400268C5
:1020D0001469234313610268936B23F440139363E1
:1020E0000268936B0C8A4F4E06EB045423439363B0
:1020F0000A790B7CD21AD21C02EB82021F23934076
:102100000268946B9C4394630A790B7CD21AD21CAC
:1021100002EB82030A8892B29A4003689C6B2243C6
:102120009A638A69AA420268936823F470239360D1
:10213000026893680CD08C692343936002689368AB
:1021400023F44013936002689368CC69234301E051
:1021500023F4401393604A7D002A0268536802D03A
:1021600043F4806301E023F4806353600A7D002A16
:102170000268536802D043F4805301E023F4805393
:1021800053604A68012A16D0022A1FD0032A026827
:1021900027D0136A6FF30B0313620268136ACC68CB
:1021A00023431362214B04681F4A9C4227D10C68C9
:1021B000122C20D023E0026853696FF30B035361A4
:1021C00002685369CC6823435361EBE70268936963
:1021D0006FF30B03936102689369CC6823439361A7
:1021E000E0E7D3696FF30B03D3610268D369CC686E
:1021F0002343D361D6E7546844F4800454600468F0
:102200009C4208D10968102901D0112903D15168D5
:1022100041F400015160002180F83C10084670BD77
:1022200001000F000000F0FF0023014000200140EA
:1022300078B50024009490F83C20012A19D001229E
:1022400080F83C200A6807230568092A13D9EE683C
:102250000A3A02EB420293409E43EE600B788A6892
:102260000A3B03EB43039A400368DD682A43DA60C4
:1022700010E0022078BD2E6902EB420293409E439B
:102280002E610B788A6803EB43039A4003681D694B
:102290002A431A614A681F23072A13D205686E6B06
:1022A000521E02EB820293409E436E630B790A88B2
:1022B0005B1E92B203EB83039A4003685D6B2A4373
:1022C0005A6327E005680D2A12D22E6BD21F02EB4B
:1022D000820293409E432E630B790A88DB1F92B2E1
:1022E00003EB83039A4003681D6B2A431A6311E0D2
:1022F000EE6A0D3A02EB820293409E43EE620B7946
:102300000A880D3B92B203EB83039A400368DD6AAF
:102310002A43DA62164B0568144A9D4206D10D68BD
:10232000122D03D1556845F48005556005689D421E
:1023300018D10B68102B01D0112B13D1536843F423
:1023400000035360096810290CD10A490A4A096838
:10235000B1FBF2F101EB8101490000E0491E00915F
:102360000029FBD180F83C40002078BD00230140CB
:10237000002001407000002040420F0070B50400B2
:102380004FF0000503D0206C002610B107E00120BB
:1023900070BD204600F01CF8666484F83C60206C38
:1023A000C00610D4206C20F4885040F00200206455
:1023B0002046FFF79FFC6664206C20F0020040F08E
:1023C0000100206400E0012584F83C60284670BDCF
:1023D00070B586B0064614216846FEF72DF82449EC
:1023E0003068884242D123480025016841F4807159
:1023F000016000681F4900F4807014390590086876
:1024000040F004000860086800F0040005900868C7
:1024100040F0010008600868032400F00100059006
:102420003F208DE831006946134800F0B1F90F20D4
:102430008DE831006946114800F0AAF9114C1048A6
:10244000C4E900050015A560C4E9035040006061BF
:102450008000C4E90605C000C4E90805204600F074
:10246000E3F808B1FFF703FEB463A66306B070BDDE
:1024700000200140443802400008024000000240B1
:1024800010640240580100202DE9F84304464FF043
:102490000009CDF8009063484FF41651A56D00680F
:1024A000B0FBF1F72E6894F85C10082000FA01F1F7
:1024B00031420FD021680A6852070BD50A6822F012
:1024C00004020A6094F85C108840A860606D40F0D7
:1024D0000100606594F85C104FF0010808FA01F003
:1024E000304208D021684969090604D5A860606DAA
:1024F00040F00200606594F85C100420884030428F
:1025000008D021680968890704D5A860606D40F08B
:102510000400606594F85C1010208840304218D0A8
:1025200021680968090714D5A86020680168490373
:1025300004D50068000308D5A16C07E00168C9054F
:1025400003D4016821F008010160216C09B1204623
:10255000884794F85C1020208840304231D02168B0
:102560000968C9062DD5A86094F8350005282068AB
:10257000016806D0490347D5006800031DD4616C8B
:102580001CE021F0160101602068416921F0800102
:102590004161206C08B9A06C20B12068016821F06D
:1025A0000801016094F85C103F208840A86084F81E
:1025B000358084F83490216D1FE0E16B09B120462D
:1025C0008847606D00282BD0606DC00714D00520AF
:1025D00084F835002068016821F00101016000984D
:1025E000401C0090B84203D820680068C007F6D1AC
:1025F00084F8358084F83490E16C002910D001B063
:102600002046BDE8F04308470168C905D5D40168F4
:1026100021F01001016084F8358084F83490CCE713
:10262000BDE8F883700000202DE9F041044600F079
:10263000ADF906465CB1022084F83500002584F827
:1026400034502068016821F0010101600DE0012093
:10265000BDE8F08100F09AF9801B052805D92020FB
:102660006065032084F83500F2E720680068C00741
:10267000F0D12268116820480140D4E901031843D1
:10268000D4E903363343184363691843A3691843F5
:10269000E3691843236A18430843616A042903D194
:1026A000D4E90B1319430843106020684069666A37
:1026B00020F0070130460E43012704280CD1A06A00
:1026C0000643E06A40B12046FFF792FC20B140206B
:1026D000606584F83570BAE7206846612046FFF7E8
:1026E00073FC94F85C203F2191408160656584F81B
:1026F00035700020ACE700003F8010F02DE9F0417C
:102700000446866D90F83400002501280DD0012084
:1027100084F8340094F835700020012F07D084F835
:10272000340002252846BDE8F0810220FBE702279D
:1027300084F8357060652046FFF784FC94F85C10DF
:102740003F208840B0602068016841F016010160B8
:10275000206C20B12068016841F008010160206808
:10276000016841F001010160DCE7000070B504463A
:1027700000F00CF90546601C02D0044800780444BF
:1027800000F004F9401BA042FAD370BD64000020A1
:102790002DE9F84FDFF8BCA10022012503264FF0F8
:1027A0000F090AF1040BAAF1040E00BF0B6805FA29
:1027B00002F42340A34270D10F7907F00307012FE1
:1027C00001D0022F16D187684FEA420806FA08FCAA
:1027D00027EA0C07D1F80CC00CFA08FC4CEA070CED
:1027E000C0F808C04768A7430C79C4F300149440AC
:1027F0003C4344600C79E443A4070AD0C4684FEA20
:10280000420C06FA0CF7BC438F6807FA0CF7274313
:10281000C7600C7904F00304022C12D1D40800EB39
:10282000840CDCF820405707FF0E09FA07F824EA69
:102830000804D1F8108008FA07F848EA0408CCF830
:10284000208004684FEA420C06FA0CF7BC430F796B
:1028500007F0030707FA0CF7274307604C6814F4E6
:10286000403F70D03C4C276847F48047276024687D
:1028700022F0030704F480440094384C07EB040C66
:10288000DCF8084897074FEA177809FA08F7BC43BD
:10289000334FB84202D1002724E054E0314FB84210
:1028A00001D101271EE0304FB84201D1022719E0C3
:1028B0002E4FB84201D1032714E02D4FB84201D169
:1028C00004270FE02B4FB84201D105270AE02A4F19
:1028D000B84201D1062705E0284FB84201D10727A9
:1028E00000E0082707FA08F72743CCF80878DAF859
:1028F00000405746D1F804C09C435FEACC2C00D579
:102900001C433C60DBF800405F46D1F804C09C43A8
:102910005FEA8C2C00D51C433C60DEF80040774613
:10292000D1F804C09C435FEA8C3C00D51C433C605A
:10293000084F083F3C68D1F804C09C435FEACC3C98
:1029400000D51C433C60521C102AFFF42FAFBDE899
:10295000F88F0000083C014044380240003001403C
:10296000000002400004024000080240000C024047
:10297000001002400014024000180240001C0240F7
:102980000AB1816170470904FBE7000001488068D3
:1029900070470000640000200248816802781144FA
:1029A00081607047640000200B4810B5016841F455
:1029B00000710160016841F480610160016841F4C7
:1029C00080710160032000F06FF80F2000F006F81E
:1029D00000F024F8002010BD003C024070B50D4D01
:1029E00004464FF47A712878B1FBF0F00A4909687F
:1029F000B1FBF0F001F091F948B9102C07D2002298
:102A00002146501E00F030F800206C6070BD01209F
:102A100070BD000064000020700000200A4808B566
:102A2000016841F480410160006800F4804000903A
:102A30000548001F016841F080510160006800F006
:102A40008050009008BD000044380240002809DB97
:102A500000F01F02012191404009800000F1E020B8
:102A6000C0F8001170470000F0B40E4B1B680C4614
:102A7000C3F30223C3F10705042D00D90425191D52
:102A8000072901D2002300E0DB1E012606FA05F12A
:102A9000491E214099409E40761E16403143F0BCAD
:102AA00004F076B80CED00E0064900F00702086873
:102AB0004FF6FF03184040EA0220034A1043086023
:102AC000704700000CED00E00000FA057047006858
:102AD000416200207047F0B50368586A39B19C6ABA
:102AE0004FF4827600EB144400204D1E0AE040EAC9
:102AF000024098620FE006EB8007DF59401C04EBB0
:102B00001744C0B2A842F6D344EA02404FF48072A0
:102B100002EB810158500020F0BDD0F8E00402F033
:102B200048BF01EBC10200EB8202D0F8E004126A58
:102B300002F099BE01EBC10200EB8202D0F8E00482
:102B4000D2F8602202F0EBBED0F8E00402F033BF0E
:102B50000A0601F00F0101EBC10100EB810101D573
:102B6000143101E001F51571006803F019BE70B56C
:102B700004460B0601F00F0000EBC00104EB8101DD
:102B80004FF001024FF0000502D54A75143103E001
:102B900081F8555201F51571087094F894040128D4
:102BA00008D084F89424206803F014FB84F894542B
:102BB000002070BD022070BD70B5044601F00F000A
:102BC0002279904201D9012070BD0B0601F00F015E
:102BD00001EBC10104EB81014FF001024FF0000550
:102BE00002D54A75143103E081F8555201F515718B
:102BF0008D70087094F89404012808D084F8942407
:102C0000206803F059FC84F89454002070BD022021
:102C100070BD01F00F0101EBC10100EB8100D0F8A4
:102C2000680270472DE9F04104460F0601F00F00DD
:102C300000EBC00104EB81014FF001064FF00005ED
:102C400002D54E75143103E081F8555201F5157126
:102C5000C2F30A0208708A600B714A7802B1488395
:102C6000022B00D14D7194F89404012809D084F806
:102C70009464206803F0FCF9284684F89454BDE875
:102C8000F0810220FBE710B501F00F0404EBC40152
:102C900000EB8101C1E998230023C1F8683281F873
:102CA000553281F85442837901F51571012B00D119
:102CB000CA618279006803F057FC002010BD70B52E
:102CC00004460D4601F00F002179884201D9012008
:102CD00070BD29064FF000064FF0010206D500EB4B
:102CE000C00104EB81014A75143107E005EBC50111
:102CF00004EB810181F8556201F515718A70087045
:102D000094F89404012807D084F89424206803F0F0
:102D1000FFFB280702D007E0022070BDA17904F272
:102D20009C42206803F09CFB84F89464002070BDF2
:102D300010B501F00F0404EBC40100EB8101C1E9FF
:102D4000082300238B6201234B7501F8144F83790C
:102D5000012B00D1CA618279006803F005FC0020D4
:102D600010BD00002DE9FC5F05680446284603F00D
:102D7000B3FD00287DD1206803F0DAFD002878D06B
:102D8000D5F80808C0F30D20C4F8D404206803F077
:102D9000CFFD800704D52068416901F0020141613F
:102DA000206803F0C5FDC10604F29C40009034D5B4
:102DB0002068816921F0100181612F6A07F00F00FE
:102DC00000EBC00004EB8006C7F3434006F5157620
:102DD000022802D0062811D01AE047F6F070074208
:102DE00016D0C7F30A1217462846F16803F0A4FD6F
:102DF000F0683844F0607069384408E008222846DA
:102E0000009903F099FD7069C7F30A1108447061D5
:102E10002068816941F010018161206803F088FD1C
:102E200000034FF0080B4FF0000A4FF001097CD56A
:102E30000026206803F05BFD074674E0F80770D0B9
:102E4000F1B2206803F06CFD8046C00707D005EBA7
:102E50004611C1F8089B3146204601F0F3FC5FEAB9
:102E6000087024D505EB4611C1F808BB2068016C39
:102E700000E023E200EB46100191D0F8082BFB4B59
:102E8000994205D9110403D54FF40041C0F8081B3D
:102E9000204600F0F6FAF5490198884207D9A07952
:102EA000012804D120680121009A03F0D9FA5FEAD1
:102EB000C86004D505EB46111020C1F8080B5FEA85
:102EC00088701DD56869000605D5D5F8040840F45A
:102ED0008061C5F8041806EBC60004EB800090F88A
:102EE000571200F51570012905D180F803A0F1B241
:102EF000204600F0E9F905EB46110220C1F8080B65
:102F00005FEA886004D505EB46102021C0F8081B55
:102F10005FEA884005D505EB46104FF40051C0F834
:102F2000081B7F08761C002F88D1206803F000FD65
:102F300040036ED5206803F0D3FC0746002666E008
:102F4000F80762D0F1B2206803F0D8FC8046C007D1
:102F500023D006F00F01D5F8342809FA01F18A438D
:102F6000C5F8342805EB4611C1F80899A079012865
:102F70000FD106EBC60004EB8000D0E90721114415
:102F8000016236B9606A20B920680121009A03F015
:102F900067FAF1B22046FFF7C4FD5FEA087003D577
:102FA00005EB4611C1F808B95FEAC86004D505EB26
:102FB00046111020C1F808095FEA486004D505EB06
:102FC00046104021C0F808195FEA887016D53146CE
:102FD000284603F056FC06EBC60004EB8000C17DDA
:102FE0001430012905D180F803A0F1B2204600F089
:102FF00067F905EB46110220C1F808095FEA08608D
:1030000003D53146204601F083FC7F08761C002F53
:1030100096D1206803F08CFC002811DAD5F804085A
:1030200020F00101C5F8041894F8CC0401282BD035
:10303000204600F00BFA2068416901F0004141612F
:10304000206803F075FC00050BD5D5F80808C0070B
:1030500002D0204600F03EFA2068416901F4006188
:103060004161206803F064FCC00467D5D5F804080A
:1030700020F00100C5F804081021206803F001FCCD
:1030800000214FF67F3220E084F8CCA400212046B6
:10309000FFF71CFDCFE700BF05EB4110C0F8082982
:1030A000D0F8003923F40013C0F80039C0F8082B19
:1030B000D0F8003B23F40013C0F8003BD0F8003BED
:1030C00043F00063C0F8003B491C20798842E3D8F4
:1030D000D5F81C0840F00111C5F81C18E07B002849
:1030E00028460DD0D0F8840840F00B01C5F88418AC
:1030F000D5F8440840F00B012846C5F844180DE007
:10310000D0F8140842F22B010843C5F81408D5F88A
:10311000100840F00B012846C5F81018D0F8000838
:1031200020F4FE61C5F80018A1792068009A03F028
:1031300097F92068416901F480514161206803F0EA
:10314000F7FB800415D5206802F0D2FF206803F059
:10315000B6FBE07100F070FA0146E279206803F0F6
:1031600049FC204600F05CF92068416901F40051F7
:103170004161206803F0DCFB000707D5204600F022
:1031800069F92068416901F008014161206803F094
:10319000CFFB000616D5A86920F08001A9610126A1
:1031A0000DE000BF06EBC60004EB800090F857026C
:1031B000012803D1F1B22046FFF7CAFC761C207922
:1031C000B042EFD8206803F0B3FBC0021FD5012640
:1031D0004F4614E005EB4610D0F8000906EBC60197
:1031E00004EB81010A7E012A08D1002806DACF7596
:1031F000F0B240F080012046FFF7AAFC761C20794F
:10320000B042E7D82068416901F48011416120682B
:1032100003F08EFB800234D501204A4629E000BF2E
:1032200005EB4011D1F8001B00EBC00304EB830356
:1032300093F85862012E1BD1002919DA94F8D4644E
:10324000C1F3004106F001068E4211D183F85722E6
:10325000A96941F08003AB616969090608D4D5F812
:10326000040840F40070C5F8040805E00A30544F23
:10327000401C21798142D3D82068416901F40011B2
:103280004161206803F054FB400007D52046FFF75A
:1032900044FC2068416901F080414161206803F0ED
:1032A00047FB40070AD520684568680702D52046D5
:1032B000FFF74AFC2068416829434160BDE8FC9F54
:1032C000D0F8E00402F0C9BBD0F8E00402F0D9BBAA
:1032D000F8B5040005D094F895042668002510B1CF
:1032E00006E00120F8BD84F89454204600F056F81A
:1032F000032084F89504B6F1A04F00D1A571206891
:1033000003F0A8F8207C8DF8000094E80F0002F08C
:10331000FDFE0226B8BB0021206803F02CFB90BB09
:10332000002001270DE000BF00EBC00104EB81018C
:103330004F750875C8850D76CD610D62401CC0B211
:103340004D6221798142EFD8002011E000EBC001ED
:1033500004EB810181F8555281F8540281F85852EA
:10336000C1F85C52C1F86052401CC0B2C1F864524E
:1033700021798142EAD8207C8DF8000094E80F0082
:1033800002F0AAFF10B184F89564AAE7657484F886
:103390009574206802F092FF0020F8BD10B586B049
:1033A000044614216846FDF747F82068B0F1A04FA5
:1033B0002FD119480021026842F001020260006822
:1033C00000F0010005904FF4C05000900220CDE9BC
:1033D0000101032003900A20049069460F48FFF77B
:1033E000D7F90D48001D016841F0800101600A48CD
:1033F0001430016841F4804101600068002200F44B
:10340000804005900E214320FFF72EFB4320FFF75D
:103410001DFB06B010BD0000303802400000024025
:1034200070B50446C079012570B1022801D0FEF7BD
:103430001EFE2946D4F8E00402F092FBD4F8E00422
:10344000BDE8704002F046BB0025F2E7D0F8E0048A
:1034500002F06FBBD0F8E00402F075BB10B5044673
:1034600090F8940401280AD0012084F8940461742F
:10347000206803F0AEFA002084F8940410BD022006
:1034800010BDD0F8E02400F29C41104602F074BB5D
:1034900010B50446006894F89414012909D001215C
:1034A00084F89414C168490609D5617B012902D0CA
:1034B00005E0022010BD816B41F4803181632068FA
:1034C00003F0BDF9206802F0EBFE002084F89404BC
:1034D00010BD000010B50446D0F8E00402F08EFBE9
:1034E0002068D0F8001E41F00101C0F8001EE07A0B
:1034F000002804D00248016841F00601016010BDB7
:1035000010ED00E02DE9F0470E46050065D0DFF82C
:103510001481D8F80000F7B200F00700B04207D2DB
:1035200088F80070D8F8000000F00700B04254D1CD
:1035300028683D4C810712D5400703D5206840F428
:10354000E05020602878000703D5206840F46040F0
:1035500020602068A96820F0F000084320602878E7
:10356000C0072DD0304968680839012812D00228D8
:1035700013D0032811D00968890700292DDA2168A2
:1035800021F0030101432160FFF700FA814641F277
:10359000883A0EE009688903EFE709688901ECE7DA
:1035A000FFF7F4F9A0EB0901514502D90320BDE86A
:1035B000F0872068696800F00C00B0EB810FEFD154
:1035C000D8F80010404601F00701B14207D9077052
:1035D000006800F00700B04201D00120E7E728783A
:1035E000400705D52068E96820F4E05008432060D2
:1035F0002878000706D52068296920F4604040EA51
:10360000C100206000F01EF82168084AC1F30311D0
:10361000515CC8400649086006480068FFF7DEF9BB
:103620000020C4E7003C024008380240A86D0008B2
:10363000700000206800002001480068704700000A
:1036400070000020154810B5006810F00C021448F6
:1036500013D04110042A0FD0082A0ED10F4C241F7A
:103660002268236802F03F025B0207D52068C0F39E
:103670008810A0FB010106E0084610BD2168C1F3D7
:103680008811A1FB00010023FCF744FE2168C1F36F
:103690000141491C4900B0FBF1F010BD083802405F
:1036A0000024F4002DE9F84F04006ED02078DFF8F4
:1036B0004C93C007A9F104054AD009F10400016840
:1036C000C1F38101012908D00068C0F381000228FC
:1036D0000AD1D9F80000400206D52868800337D502
:1036E00060680028E1D033E06068B0F5803F10D01A
:1036F000B0F5A02F286810D020F48030286028680A
:1037000020F4802028606068A8B1FFF73FF90646E2
:103710000DE0286840F48030F4E740F48020286011
:10372000F7E700BFFFF732F9801B642873D82868D9
:103730008003F7D50CE0FFF729F9064605E000BF46
:10374000FFF724F9801B6428F0D828688003F7D499
:103750002078DFF8AC8280074FF0000A3ED5A748FA
:10376000001D016811F00C0F08D00068C0F3810043
:1037700002280BD1D9F80000400207D4286880073E
:1037800016D5E068012800D112E033E1E068B8B155
:103790000120C8F80000FFF7F9F8064605E000BF71
:1037A000FFF7F4F8801B0228C0D828688007F7D5F7
:1037B0002868216920F0F80040EAC10028600DE087
:1037C000C8F800A0FFF7E2F8064604E0FFF7DEF8CD
:1037D000801B02281FD828688007F7D420780007AC
:1037E00022D5864F87486169703771B10121016028
:1037F000FFF7CCF8064604E0FFF7C8F8801B022864
:1038000009D838688007F7D50EE0C0F800A0FFF7A8
:10381000BDF8064605E082E0FFF7B8F8801B0228F5
:103820007DD838688007F7D42078400768D5DFF85E
:10383000CCB100270BF13C0BDBF80000C0000BD42F
:10384000DBF8001041F08051CBF80010DBF80000ED
:10385000012700F0805000906B4E3068C00510D4F6
:10386000306840F480703060FFF790F8009005E019
:10387000FFF78CF80099401A022850D83068C0052C
:10388000F6D55E4EA0686C3601280FD0052830684A
:1038900010D020F001003060306820F0040030606B
:1038A000A068B8B1FFF772F800900FE0306840F000
:1038B0000100F4E740F004003060F7E7FFF766F836
:1038C0000099411A41F28830814266D830688007F9
:1038D000F4D50EE0FFF75AF8009007E0FFF756F82E
:1038E0000099411A41F28830814256D830688007E9
:1038F000F4D42FB1DBF8001021F08051CBF8001088
:10390000A069C8B33D49091D0968C1F381010229B5
:103910004AD00228504607D0C8F8600000E03CE0DA
:10392000FFF734F804463BE04746C8F86000FFF76D
:103930002DF8064605E000BFFFF728F8801B022897
:103940002BD828688001F7D4D4E907010843A16A7D
:103950002E4A490802EB0141626A41EA821108439A
:1039600094F82C1040EA0161C9F800100120386673
:10397000FFF70CF8044606E03EE000BFFFF706F84C
:10398000001B022809D828688001F7D534E000BF61
:10399000FEF7FCFF001B022802D90320BDE8F88FC8
:1039A00028688001F4D427E00128F7D0D9F8000076
:1039B000E26900F4800191421CD1226A00F03F01CB
:1039C000914217D147F6C071626A0140B1EB821F84
:1039D00010D1A26A4FF0FF3300F4403103EB5202E2
:1039E000B1EB024F06D194F82C1000F07060B0EBF0
:1039F000016F01D00120D1E70020CFE70438024059
:103A000000004742800E4742007000400000FFFF68
:103A1000704770B5040009D0606A002540B1256187
:103A20006561A56294F8510040B10CE0012070BDC1
:103A30006068B0F5827FF4D0E561F2E784F8505019
:103A4000204600F045F8022084F851002068016803
:103A500021F040010160A088218900F4827001F406
:103A600004410843A18901F400610843217C01F06D
:103A700002010843217D01F001010843218B01F47B
:103A800000710843217F01F03801084394F82010A9
:103A900001F080010843218D01F4005108432168A1
:103AA0000860A069042101EA104094F8241001F094
:103AB00010010843216848602068C16921F4006151
:103AC000C1616565012084F85100002070BD0000CF
:103AD0002DE9F04786B0064614216846FCF7ACFC99
:103AE0003C4D31683C48022203230024A94250D1B6
:103AF000394914310D6845F480550D60096801F4A9
:103B000080510591016841F001010160006869463A
:103B100000F001000590E0208DE815000520CDE9BA
:103B200003302E48FEF734FE2E4D2D484FF0C0676F
:103B30002860C5E9017405F10C014FF480684FF469
:103B400000694FF4005A81E81007EC612C622846A6
:103B50006C62FEF769FD08B1FEF789FAF564AE63A1
:103B6000204D1F4860351830E5E802074020A5E8E1
:103B700011071C4845F81C4960302C626C62FEF746
:103B800053FD08B1FEF773FAB564AE6306B0BDE845
:103B9000F087154DA942F9D10F4910310D6845F450
:103BA00000450D60096801F400410591016841F08C
:103BB000040101600068694600F0040005904FF4BC
:103BC000E0508DE815000620CDE903300748FEF7E8
:103BD000DFFDDBE7003001403038024000000240EA
:103BE0004064024068020020003C0040000802409F
:103BF0007047704770B5044690F851006568012819
:103C000006D0B5F5827F3AD1A568A5BB042836D188
:103C100091B38AB383B394F8500001282FD00120C8
:103C200084F8500094F85100042802D0052084F84C
:103C30005100002565652163A386E386A263A387FF
:103C4000E3872564656494F85100042819D0E16C79
:103C5000274808642748E16CC863E16C2648C864BB
:103C6000E06C0565E38F2168A26B0C31E06CFEF718
:103C700045FD00BB0AE002E0FFE7012070BD022025
:103C800070BDE16C1D4808641D48E4E72068416888
:103C900041F001014160A06C0564A06CC563A06C9B
:103CA000C564A06C0565E38E2268216B0C32A06CA4
:103CB000FEF724FD30B1606D40F01000606584F8BF
:103CC0005050DAE720680168490603D4016841F0E2
:103CD0004001016084F850502068416841F02001A3
:103CE00041602068416841F002014160002070BDE0
:103CF000E1490008554A0008B5490008D7490008BD
:103D0000EB49000800680349884201D1FEF7A4B8D6
:103D10007047000000300140704710B5401EB0F100
:103D2000807F01D3012010BD4FF0E02460610F219E
:103D3000601702F02DFF0020A06107202061002005
:103D400010BD7047704710B590F83C20012A22D072
:103D5000012280F83C20CA688C6822F44072224319
:103D60004C6822F4806222430C6822F400622243F1
:103D70000C6922F4805222434C6922F400522243FF
:103D8000C969002322F480420A4301684A6480F82A
:103D90003C30002010BD022010BD000070B590F82E
:103DA0003C20012A32D0012480F83C40022280F8D5
:103DB0003D2003685A689D6822F070060A68324305
:103DC0005A60134B02689A4214D0B2F1804F11D05E
:103DD000104B9A420ED0104B9A420BD00F4B9A4286
:103DE00008D00F4B9A4205D00E4B9A4202D00E4B90
:103DF0009A4204D1496825F080031943916080F804
:103E00003D40002180F83C10084670BD022070BD86
:103E1000000001400004004000080040000C004089
:103E200000040140004001400018004010B50400AB
:103E300003D094F83D0010B107E0012010BD002030
:103E400084F83C00204600F01FF8022084F83D0072
:103E5000211D206800F056FF012084F8460084F8F8
:103E60003E0084F83F0084F8400084F8410084F864
:103E7000420084F8430084F8440084F8450084F844
:103E80003D00002010BD000008B5114A016811482E
:103E9000914207D1016841F001010160006800F022
:103EA000010009E00C4A914211D1016841F400314E
:103EB0000160006800F400300022009011461920D3
:103EC000FEF7D2FDBDE808401920FEF7BFBD08BDD2
:103ED00000000140443802400044014070B50446EF
:103EE00090F83C000025012817D0012684F83C609A
:103EF000022084F83D002068826822F0770222F4D4
:103F00007F4282600868502838D00DDC20284FD0CE
:103F100005DC90B3102811D14AE0022070BD302892
:103F200046D040280AD13BE060282FD070280DD021
:103F3000B0F5805F03D0B0F5005F12D0012584F8A2
:103F40003D60002084F83C00284670BDCB68D1E974
:103F50000121206800F03EFF2068816841F0770170
:103F600009E0CB68D1E90121206800F033FF206827
:103F7000816841F480418160E1E719E0CA684968DD
:103F8000206800F0FBFF5021206806E0CA684968FD
:103F9000206801F004F86021206800F025FFCEE7DA
:103FA000CA684968206800F0E9FF40212068F4E70A
:103FB000226801461046F0E770472DE9F0410446BB
:103FC0000068C66805694FF00007A90713D5B10757
:103FD00011D5F91E016101202077206880698007D2
:103FE000204602D0FFF7E8FF04E000F0E8F82046A2
:103FF00000F0A8F92777680716D5700714D521684F
:104000006FF004000861022020772068806910F4B6
:10401000407F204602D0FFF7CFFF04E000F0CFF84A
:10402000204600F08FF92777280715D5300713D5DC
:1040300021686FF008000861042020772068C069BB
:104040008007204602D0FFF7B7FF04E000F0B7F882
:10405000204600F077F92777E80616D5F00614D544
:1040600021686FF010000861082020772068C0697F
:1040700010F4407F204602D0FFF79EFF04E000F0DE
:104080009EF8204600F05EF92777E80708D0F00791
:1040900006D021686FF001000861204600F053F956
:1040A000280608D5300606D521686FF08000086123
:1040B0002046FFF746FE680608D5700606D521683B
:1040C0006FF040000861204600F03EF9A8060AD5CE
:1040D000B00608D521686FF0200008612046BDE8D1
:1040E000F041FFF72FBEBDE8F081000070B586B04B
:1040F000044614216846FCF79FF918492068884255
:1041000029D117480024016841F0020101600168CB
:1041100001F002010591016841F0010101600068B0
:10412000022500F0010005904FF460400090CDE9B9
:1041300001540126CDE9034669460A48FEF728FBEB
:104140004FF4E0600090CDE90154CDE903466946A3
:104150000548FEF71DFB06B070BD000000000140E1
:1041600030380240000402400000024070B50446AE
:1041700090F83C00002501280FD0012084F83C0075
:104180006AB1042A0FD0082A11D00C2A13D00125B5
:10419000002084F83C00284670BD022070BD2068D5
:1041A00000F02AFEF4E7206800F056FEF0E72068F1
:1041B00000F088FEECE7206800F0B8FEE8E7704702
:1041C00010B5040003D094F83D0010B107E00120C1
:1041D00010BD002084F83C00204600F01EF80220AC
:1041E00084F83D00211D206800F08CFD012084F83A
:1041F000460084F83E0084F83F0084F8400084F8CC
:10420000410084F8420084F8430084F8440084F8B4
:10421000450084F83D00002010BD704770B504468D
:1042200090F83C0000260D4601280FD0012084F8AC
:104230003C006AB1042A1DD0082A2FD00C2A3FD096
:104240000126002084F83C00304670BD022070BD7D
:10425000206800F0D1FD2068816941F0080181618A
:104260002068816921F004018161206881692A69DF
:10427000114311E0206800F0EFFD2068816941F4EE
:10428000006181612068816921F480618161206819
:1042900081692A6941EA02218161D2E7206800F040
:1042A00011FE2068C16941F00801C1612068C1693F
:1042B00021F00401C1612068C1692A69114311E03C
:1042C000206800F033FE2068C16941F40061C161DB
:1042D0002068C16921F48061C1612068C1692A69CF
:1042E00041EA0221C161ACE710B5040003D094F8A3
:1042F0003D0010B107E0012010BD002084F83C0013
:10430000204600F01EF8022084F83D00211D2068A0
:1043100000F0F8FC012084F8460084F83E0084F8A0
:104320003F0084F8400084F8410084F8420084F89B
:10433000430084F8440084F8450084F83D000020E0
:1043400010BD7047704770477047FEE7F0B5002317
:104350000A24302537261F4611E000BFB4EB107F3A
:1043600002D905EB107C01E006EB107C01F813C0CC
:1043700001EB430C00015B1C8CF80170DBB2934233
:10438000ECD3F0BD2DE9F0418CB0002400940194F1
:104390000294202104A80394FCF74EF847484649AC
:1043A000012501604FF480310561C0E901140476F4
:1043B00080F820400903C0E90A414FF00708C0F81F
:1043C0001C80C46080F830404561FDF7D7FF08B11C
:1043D000FDF74DFE0D20CDE90005694602943748F2
:1043E000FDF726FF08B1FDF742FE0226CDE90046A3
:1043F00069463248FDF71CFF08B1FDF738FE032778
:10440000CDE9005769462D48FDF712FF08B1FDF7C9
:104410002EFE0420CDE9006069462848FDF708FF1C
:1044200008B1FDF724FE0520CDE900706946234858
:10443000FDF7FEFE08B1FDF71AFE0E2000900620E3
:10444000019069461D48FDF7F3FE08B1FDF70FFE28
:104450000F20CDE9000869461848FDF7E9FE08B1CC
:10446000FDF705FECDE904454FF480100694CDE933
:104470000A408DF8254008978DF8245004A90F486C
:104480000794FDF7F7FD08B1FDF7F1FDCDE90456FE
:1044900004A90A48FDF7EEFD08B1FDF7E8FD04A9FF
:1044A0000648CDE90467FDF7E5FD002801D0FDF7DA
:1044B000DEFD0CB0BDE8F0810020014010010020BD
:1044C000114808B5016841F48001016000680022CC
:1044D00000F48000009011463820FEF7C5FA38201D
:1044E000FEF7B4FA002211463A20FEF7BDFA3A2050
:1044F000FEF7ACFA002211463B20FEF7B5FABDE804
:1045000008403B20FEF7A2BA303802402DE9F04FB8
:1045100087B014216846FBF78FFF384800240168F4
:1045200041F080010160016801F08001059101689E
:1045300041F004010160016801F004010591016886
:1045400041F001010160016801F00101059101687C
:1045500041F002010160016801F00201059101686A
:1045600041F0080101600068DFF8948000F0080065
:104570000590002210214046FEF702FADFF88490F1
:1045800041F6BB46002231464846FEF7F9F9DFF80E
:1045900078A04FF40077002239465046FEF7F0F934
:1045A000DFF868B0002204215846FEF7E9F9102030
:1045B00000900125CDE90154694640460394FEF779
:1045C000E7F80096CDE90154694648460394FEF7A2
:1045D000DFF80097CDE90154694650460394FEF791
:1045E000D7F804200090CDE9015469465846039459
:1045F000FEF7CEF807B0BDE8F08F0000303802407B
:10460000000002400004024000080240000C02408A
:10461000114810B50F4901604FF4827141600021CB
:104620004FF40062C0E902120122C0E904125202F2
:1046300082611822C0E90721416281620A21C162B8
:10464000FFF7E7F9002803D0BDE81040FDF70FBDE4
:1046500010BD000000300140B80100200F4810B527
:104660000D4901604FF48271416000218160C16099
:104670004FF400720161C0E90512C161016241623B
:1046800081620A21C162FFF7C4F9002803D0BDE8A6
:104690001040FDF7ECBC10BD003C004010020020B3
:1046A0000C4810B50A490160A721416000214FF470
:1046B0007A72C0E90212016180218161FFF7B6FBC5
:1046C000002803D0BDE81040FDF7D1BC10BD0000AC
:1046D000004401407003002030B595B000240F94D1
:1046E00010941194129413941C2168461494FBF7AF
:1046F000A3FE202107A8FBF79FFE38483649C0E9F2
:1047000000142021816041F26701C0E90314802177
:10471000C0E90541FFF78AFB08B1FDF7A8FC4FF49B
:1047200080550FA92D480F95FFF7D8FB08B1FDF76D
:104730009EFC2A48FFF7D8FD08B1FDF798FC2748F2
:10474000FFF73EFD08B1FDF792FC7020CDE91304A0
:1047500013A92248FFF722FB08B1FDF788FC60206F
:10476000009040F63300CDE90104039404940594CD
:104770000022694619480694FFF750FD08B1FDF77D
:1047800076FC042269461548FFF748FD08B1FDF79D
:104790006EFC00940822694610480194FFF7E6FC7D
:1047A00008B1FDF764FC4FF48060CDE9074032208A
:1047B000CDE909404FF400500E94CDE90B5007A904
:1047C0000648FFF7C0FA08B1FDF751FC0348FFF7B0
:1047D0008DFC15B030BD0000000001402803002012
:1047E00010B500220F49104801F018F808B1FDF784
:1047F0003EFC0E490C4801F02DFA08B1FDF737FCDC
:104800000B49094800F0AAFD08B1FDF730FC064845
:1048100001F0A4FA002803D0BDE81040FDF727BC42
:1048200010BD000000000020B8030020CC000020D4
:1048300050000020FEE7FEE70148FEF793BA0000B3
:10484000B41A00202DE9F04103680D4604461E6CA1
:1048500003EB4511D1F8080B94F806E04FF400473C
:104860004FF0200C04F29C42BEF1010F09D0DFF89A
:1048700098E0764539D1020432D500BFC1F8087BF3
:104880003FE0224B5FEA007E04D59E4239D9000406
:10489000F4D436E05FEA806E02D5C1F808CB30E090
:1048A00010F0280F2DD19E4201D90004E6D405EB6B
:1048B000C50004EB8000D1F8101BD0F87432C1F3AE
:1048C0001201591AC0F8681200F51570ADB90369E4
:1048D0001BB1C2681144C1600FE0012120680AE0E9
:1048E00080060AD5C1F808CB07E035B9D4F86402D0
:1048F00018B90021184601F0B3FDE9B22046FEF7D1
:1049000019F90020BDE8F0810A31544F0A30544FA4
:104910002DE9F84F0E4601EBC60100EB81048146FC
:104920000568D4E909101434884202D90120BDE891
:10493000F88F081AA168814200D20846C01C870877
:1049400005EB46181BE000BFA0EB010AA06850452C
:1049500000D282460AF10300870899F80600009009
:104960001FFA8AF3F2B22846E16802F0B7F8E1686C
:1049700001EB0A00E060616901EB0A006061D8F8B0
:10498000180980B2B84205D3D4E90401814201D2AA
:104990000028D9D1D4E90401884208D806F00F01D3
:1049A00001208840D5F834188143C5F83418002018
:1049B000BDE7704710B5806B01684A6822F00302BA
:1049C0004A60416D41F010014165012180F85110AC
:1049D000FFF71EF810BD10B5806BFFF70AF910BD88
:1049E00010B5806BFFF798F910BD70B50546846B64
:1049F000FDF7CCFF024628680068C00526D4206871
:104A0000416821F020014160A06818B96068B0F5E4
:104A1000827F16D02068416821F001014160642145
:104A2000204600F044F808B1202060650020E087AF
:104A3000012084F85100606D40B12046FEF7E8FF88
:104A400070BD2068416821F00301E7E72046FFF7C9
:104A5000CFF870BD70B50546846BFDF797FF024631
:104A600028680068C0051ED42068416821F0200134
:104A700041606421204600F049F818B1606D40F0B3
:104A8000200060652068416821F00301416000203A
:104A9000E086E087012084F85100606D18B120465F
:104AA000FEF7B6FF70BD2046FFF72CF970BDF8B5D4
:104AB000044640684FF48273984221D1A0684FF4B5
:104AC0008065B0F5004F01D0A8420AD12068066881
:104AD00026F0400606606068984211D1A068A8429E
:104AE0000ED000920B4600228021204600F044F8B0
:104AF000002804D0606D40F0200060650320F8BD00
:104B000000920B4600220121EFE70000F8B51546A0
:104B10000E460B46009204460122022100F02CF8BA
:104B2000A0B9134813490068B0FBF1F04FF47A7153
:104B3000484300906068B0F5827F0DD13346002273
:104B400080212046009500F017F870B1606D40F0AC
:104B5000200060650320F8BD009830B1401E009031
:104B600020688068C0430006F6D50020F8BD00002C
:104B70007000002000366E012DE9F8431E46914674
:104B800088460446089DFDF701FF401B351AFDF7D6
:104B9000FDFE074626480068C0F3CB3068430AE0B4
:104BA000701C09D0FDF7F2FEC01BA8420FD275B1F0
:104BB0000098B8B3401E00902068816838EA010070
:104BC00033D000214945EBD10020BDE8F8832068AF
:104BD000416821F0E00141606068B0F5827F0BD14F
:104BE000A068B0F5004F02D0B0F5806F04D1206806
:104BF000016821F040010160A06AB0F5005F09D1B1
:104C00002068016821F4005101602068016841F4C6
:104C100000510160012084F85100002084F8500008
:104C20000320D2E7FFE70025C6E70121CAE700001D
:104C30007000002070470178407841EA00207047FA
:104C4000FDF7AABE30B593B030216846FBF7F4FB00
:104C500014210CA8FBF7F0FB1D480025016841F06A
:104C600080510160006800F080501190194801687F
:104C700041F4804101600068022400F480401190FA
:104C800001200090000401908001CDE9064004203D
:104C90000890A820CDE9090407200B906846FEF78C
:104CA00001FD08B172B6FEE70CA90F2081E83100C2
:104CB0004FF4A0500F904FF48050109005210CA895
:104CC000FEF720FC002801D072B6FEE713B030BD1D
:104CD00040380240007000400248016841F4700111
:104CE0000160704788ED00E010B50448FFF765F9F2
:104CF000BDE810400248FFF760B90000280300201B
:104D000070030020F0B50268274B284D284E294F2C
:104D1000294C4FF0804C984209D0604507D0A842FA
:104D200005D0B04203D0B84201D0A04204D122F055
:104D3000700E4A6842EA0E0298421BD0604519D0B4
:104D4000A84217D0B04215D0B84213D0A04211D01B
:104D50001A4DA8420ED01A4DA8420BD0194DA842A8
:104D600008D0194DA84205D0184DA84202D0184DC0
:104D7000A84203D122F44075CA682A434D6922F043
:104D800080022A438D68C5620D688562984201D011
:104D9000A04201D109690163016841F00401016089
:104DA000012141610260F0BD0000014000040040AB
:104DB00000080040000C0040000401400040014099
:104DC000004401400048014000180040001C004021
:104DD0000020004010B5846842EA032224F47F4496
:104DE0000A432243826010BD826822F070020A43A7
:104DF00042F0070181607047F0B5036A026A22F051
:104E00000102026242688469124E24F073050C6844
:104E10002C4323F002058B682B430D4DA84201D093
:104E2000B04205D123F00807CB683B4323F00403CD
:104E3000A84201D0B04205D14D6922F44072154319
:104E40008A692A4342608461496841630362F0BD14
:104E50000000014000040140F0B5026A036A23F03B
:104E600010030362436884690D6824F4E64444EA4D
:104E700005248D6822F0200242EA05120F4D104EE3
:104E8000A84201D0B04206D1CF6822F0800242EAA7
:104E9000071222F04002A84201D0B04207D14D696A
:104EA00023F4406343EA85038D6943EA8503436045
:104EB0008461496881630262F0BD00000000014026
:104EC00000040140F0B5026A036A23F480730362B0
:104ED0004368C46922F4007224F073050C68124E12
:104EE0002C438D6842EA05220E4DA84201D0B04203
:104EF00006D1CF6822F4006242EA072222F48062DF
:104F0000A84201D0B04207D14D6923F4405343EA8F
:104F100005138D6943EA05134360C4614968C163A1
:104F20000262F0BD000001400004014030B5046A97
:104F3000026A22F4805202624268C3690D6823F457
:104F4000E64343EA05238D6824F4005444EA05341B
:104F5000084DA84202D0084DA84204D14D6922F460
:104F6000804242EA85124260C3614968016404627A
:104F700030BD0000000001400004014010B5036A8C
:104F8000046A24F001040462846924F0F00444EA11
:104F9000021423F00A020A438461026210BD10B5B4
:104FA000036A046A24F010040462846923F0A003F5
:104FB00024F4704444EA023243EA0111826101623E
:104FC00010BD2DE9F0410C46D0F8D412D0F8C8221B
:104FD00000EB8101D1F8C01229B304F00F0606EBF3
:104FE000860300EB830500276B694BB106EBC60611
:104FF00002EB8602D269B3FBF2F602FB1632A2B1D3
:10500000C1F81472D0F8D42200EB8200D0F8C402A8
:1050100003692BB1D1F80802224601F504719847C3
:105020000020BDE8F0810320FBE700231A4621465B
:105030006F6100F0F0FDF3E770B50546D0F8D402DB
:1050400005EB8000D0F8C04294B1284600F0C2FCC5
:10505000C4F80C02D5F8D412D4F8040205EB81018F
:10506000D1F8C412CA6804F503719047002070BDDE
:10507000032070BD70B5234D0446297800F0EAFB8B
:105080002878002600F00F0000EB800004EB800081
:1050900080F823606978204600F0DCFB687800F037
:1050A0000F0000EB800004EB800080F86361A978BA
:1050B000204600F0CFFBA87800F00F0000EB800046
:1050C00004EB800080F82360C661D4F8D40204EBBE
:1050D0008000D0F8C01299B1D0F8C402406880476F
:1050E000D4F8D40204EB8000D0F8C00200F0BAFF7C
:1050F000D4F8D40204EB8000C0F8C062C4F8BC62EB
:10510000002070BD7800002010B5D0F8D41200EB5C
:105110008100D0F8C04284B1D0F8C41259B194F8DB
:105120000002FF2807D08B6894F801222146984797
:10513000FF2084F80002002010BD032010BD0000F5
:105140000A210180004870477C00002070B50646A7
:1051500082210C4800F001FB05460121094800F0BE
:10516000FCFA04468121074800F0F7FA0DB110213E
:10517000A971402104B1A18000B181804320308019
:10518000004870BD8800002070B5064682210D4899
:1051900000F0E3FA054601210A4800F0DEFA044671
:1051A0008121084800F0D9FA0DB11021A9714FF4FE
:1051B000007104B1A18000B181804320308001489A
:1051C00070BD00008800002070B5064682210C48A2
:1051D00000F0C3FA05460121094800F0BEFA044672
:1051E0008121074800F0B9FA0DB11021A9714021C1
:1051F00004B1A18000B1818043203080004870BD9F
:10520000880000202DE9F04704464FF40775284632
:1052100000F02AFF06004FF0000865D02946FBF792
:105220000BF9D4F8D4023E4D04EB80004FF0100986
:10523000C0F8C062C4F8BC62207C4FF4007A012739
:10524000E8B3402302222978204600F02EFC28787B
:10525000402300F00F0000EB800004EB800080F89A
:10526000237002226978204600F01FFC687808232A
:1052700000F00F0000EB800004EB8000032280F8B8
:105280006371A978204601F00F0101EB810104EB65
:105290008101C1F81C90A97800F007FCA87800F003
:1052A0000F0000EB800004EB800080F82370C6F84C
:1052B0000482D4F8D402474604EB800000E01BE0EF
:1052C000D0F8C40206F5017600688047376177613F
:1052D00032687AB1207C00B340236978204600F020
:1052E000F0FB0020BDE8F087D4F8D41204EB810174
:1052F000C1F8C0820220F5E75346022229782046F1
:1053000000F0D3FB2878534600F00F0000EB80003C
:1053100004EB800080F82370A3E75346DDE700002C
:105320007800002010B5D0F8D41200EB8101D1F83C
:10533000C01259B1027C084C002AD1F8042207D0CF
:105340004023617800F0BDFB002010BD032010BD9C
:105350004FF40073F5E700007800002039B1D0F871
:10536000D42200EB8200C0F8C41200207047032052
:105370007047D0F8D42200EB8200D0F8C00218B1F8
:10538000C0F804120020704703207047D0F8D432D0
:1053900000EB8300D0F8C00228B1C0F81022C0F89A
:1053A000081200207047032070472DE9FC41064693
:1053B000D0F8D4020C4606EB80000021D0F8C07271
:1053C0008DF80010ADF804100D4637B1217811F0BA
:1053D00060022FD0202A4BD102E00320BDE8FC81DF
:1053E000E288F2B109060DD5D0F8C40263783946D7
:1053F000D0F808C01846E047E288072A00D90722FB
:1054000039462DE0607887F80002E088402800D314
:105410004020C2B287F801223946304600F081F8B8
:105420002BE0D0F8C4026378002286682146184633
:10543000B04722E0607830B101281ED00A2809D098
:105440000B2815D110E096F89C02032810D10222F7
:1054500001A905E096F89C02032809D101226946BA
:10546000304600F07AF808E096F89C02032804D051
:105470002146304600F04AF803252846AEE70000F2
:1054800010B5D0F8D41200EB8101D1F8C02201216F
:105490001AB1D2F8143213B116E0032010BD012165
:1054A000C2F814120949D2F81032097801F00F0439
:1054B00004EB840400EB84046361D2F81032D2F868
:1054C000082200F0A8FB0021084610BD780000204B
:1054D00010B5D0F8B82200245268904700B10324D8
:1054E000204610BD0020704700207047134610B5BD
:1054F0000A46002100F0E5FA002010BD134610B561
:105500000A46002100F087FB002010BD10B50446BC
:10551000802100F061FB2046BDE81040002100F032
:105520005BBB10B50323C0F89432C0F85421C0F817
:1055300058211346C0F864110A46002100F0C1FA50
:10554000002010BD10B50521C0F8941200231A46A2
:10555000194600F0B6FA002010BD10B50223C0F8BD
:10556000943242618261134641620A46002100F092
:1055700052FB002010BD10B50421C0F89412002386
:105580001A46194600F047FB002010BD10B50A4628
:10559000024903A000F00FF9004810BD9406002056
:1055A00043444320436F6E66696700001220088001
:1055B000004870472000002010B50A46024903A0A9
:1055C00000F0F9F8004810BD940600204344432041
:1055D000496E74657266616365000000042008808E
:1055E000004870471C00002010B50A46024903A07D
:1055F00000F0E1F8004810BD9406002053544D69B6
:1056000063726F656C656374726F6E6963730000BB
:1056100010B50A46024903A000F0CDF8004810BDBD
:105620009406002053544D333220566972747561CC
:105630006C20436F6D506F727400000010B51A201B
:1056400008800A480168001D0468001D00680818E9
:1056500009D008220649FEF779FE054904221031D7
:105660002046FEF773FE0248801E10BD107AFF1F11
:1056700036000020F8B504460020ADF80000488848
:105680000D46010A08295FD2DFE801F05E04091720
:105690005E5E3C45D4F8B412207C0A6819E0207C98
:1056A00002260028D4F8B80205D0C16A68468847A7
:1056B0000146467039E0816AF8E7C0B2062843D255
:1056C000DFE800F0030A1014181CD4F8B402426892
:1056D00005E0694690471CE0D4F8B402826892B3B2
:1056E000207CF6E7D4F8B402C268F8E7D4F8B40234
:1056F0000269F4E7D4F8B4024269F0E7D4F8B402DE
:105700008269ECE7207CF0B9D4F8B802416B6846B6
:105710008847014609E0207CA8B9D4F8B802016B9B
:1057200068468847014607204870EA888AB1BDF874
:10573000000040B1824200D90246ADF80020204668
:10574000FFF70BFFF8BDFFE729462046FFF7DEFE17
:10575000F8E72046FFF70FFFF4E778B50E464288DA
:105760000178002504468A4212D9ADF800100AE0FB
:10577000694600F019F84178052904D18178054679
:10578000B14205D000256188BDF800209142EFD8D4
:10579000284678BD0146002002E0401CC0B2491CEA
:1057A0000A78002AF9D170470A8803781A440A80D7
:1057B00001780844704770B516460D46002820D081
:1057C0000446FFF7E7FF022101EB40014FF40070B0
:1057D000814204D82046FFF7DDFF4000801C308066
:1057E00030782870032068700220002206E02954D7
:1057F000401CC0B22A54401CC0B2641C217800294D
:10580000F5D170BD01004FF0000004D0012901D096
:10581000022901D0032070470120704778B100238E
:10582000C0F8B832C0F8C432C0F8D03209B1C0F8FC
:10583000B412012180F89C12027000F0CFB803204E
:10584000704710B5D0F8C802FDF7B6F9BDE81040B2
:10585000FFF7D8BF10B5D0F8C802FDF788F9BDE84A
:105860001040FFF7CFBF70B50446002521B194F872
:105870009C02032846D050E0D4F8941204F114009E
:10588000022939D1818942688A420AD9511A416074
:10589000828901691144016142682046FFF72EFEAA
:1058A0000FE0914214D10068884211D3D4F89812C5
:1058B00088420DD2002211462046FFF71FFEC4F891
:1058C000985200231A461946204600F0FAF813E0D1
:1058D00094F89C02032808D1D4F8B802C16821B119
:1058E000C4F8D452C168204688478021204600F081
:1058F00073F92046FFF726FE94F8A00268B184F8F9
:10590000A0520AE0D4F8B802426932B1C4F8D452C5
:10591000426920469047002800D1002070BD10B594
:105920000446002221B194F89C02032834D03EE0C2
:10593000D4F8941204F5AA70032938D181894368F8
:105940008B420ED9591A4160828901691144016163
:1059500042688089824200D802462046FFF7C6FD91
:1059600025E094F8AA0210F01F0003D0012802D00D
:10597000022800D0002294F89C02032808D1D4F811
:10598000B802016921B1C4F8D422016920468847D0
:105990002046FFF7F0FD0AE0D4F8B802836933B17E
:1059A000C4F8D422826920469047002800D1002004
:1059B00010BD0020704710B50024012180F89C1212
:1059C000D0F8B82222B152680179904700B103247F
:1059D000204610BDD0F8C802FDF71BB910B50178FC
:1059E00039BB15490222C1F8E004C0F8C8124FF0D3
:1059F000A040086004200871CA71002088714A72B2
:105A00008872C87208738873C8730846FDF760FC13
:105A100008B1FCF72CFB80210748FDF758F840221D
:105A200000210548FDF757F8802201210248FDF7C3
:105A300052F8002010BD0000B41A00200A0601F040
:105A40007F01D0F8C80201EBC10100EB810001D554
:105A5000807D704790F85602704710B5D0F8D42278
:105A600000EB8202D2F8B82222B190F89C32032BCC
:105A700002D004E0032010BD126A02B1904700205A
:105A800010BD10B5D0F8D42200EB8202D2F8B822B3
:105A900022B190F89C32032B02D004E0032010BD09
:105AA000526A02B19047002010BD10B51C46134643
:105AB000D0F8C8022246FDF7B5F8BDE81040FFF760
:105AC000A1BE10B5D0F8C802FDF7DDF8BDE8104062
:105AD000FFF798BE2DE9F04100260125044680F825
